S01300005254505F50726F6A6563742E73726563E5
S113000094C00000B3C00000B1C00000AFC0000045
S1130010ADC00000ABC00000A9C00000A7C0000034
S1130020A5C00000A3C00000A1C000009FC0000044
S1130030A9C500009BC0000099C0000097C0000043
S113004095C0000093C0000091C000008FC0000064
S11300508DC000008BC0000089C0000087C0000074
S113006085C000000C947C170C94CE177FC0000050
S11300707DC000007BC0000079C0000077C0000094
S113008075C0000073C0000071C000006FC00000A4
S11300900C9412180C94641869C0000067C0000026
S11300A065C0000063C0000061C000005FC00000C4
S11300B05DC000005BC0000059C0000057C00000D4
S11300C055C0000053C0000051C000000C94A81893
S11300D00C94FA184BC000000C943E190C9490191F
S11300E045C00000FC13FC13FC1333143B145014E0
S11300F0FC13FC1333143B140E94910A8091511198
S1130100823008F07AD40E947914F6CFCF93DF932B
S11301101F92CDB7DEB7CE0101960E9480114981AE
S11301200E9473130E94C613F6CF11241FBECFEF93
S1130130D1E2DEBFCDBF00E00CBF13E0A0E0B2E02F
S1130140EAEFFFE300E00BBF02C007900D92A0347A
S1130150B107D9F722E1A0E4B3E001C01D92A331B5
S1130160B207E1F70E94B7140C94FB1F49CF8DE14D
S113017092E09F938F930E940B1D65E070E080E0F6
S113018090E00E94130E0F900F906EE370E080E0F9
S113019090E00E94F80D81E072D1EC014FEF5FEF27
S11301A0BA018091071290910812AED7813079F488
S11301B0D0934303C093420300E020E030E0A90160
S11301C060E070E080910712909108122DD66EE3E2
S11301D070E080E090E00E94F80DD7CF88E392E0D1
S11301E09F938F930E940B1D63E070E080E090E08A
S11301F00E94130E0F900F906EE370E080E090E089
S11302000E94F80D80E03BD1EC014FEF5FEFBA01A3
S1130210809105129091061277D78130D9F4D0934A
S11302204103C0934003DF93CF9388E592E09F930B
S11302308F930E940B1D00E020E030E0A90160E0F4
S113024070E08091051290910612EED50F900F90F8
S11302500F900F906EE370E080E090E00E94F80D44
S1130260CBCFEF92FF920F9381E07DD6909308124B
S11302708093071281E077D690930612809305123B
S1130280E12CF12C03E020E030E040EC50E06CE69F
S113029072E087EB90E00E94540B20E030E040ECE9
S11302A050E06EE772E08EEE90E00E94540B01E0A5
S11302B020E030E040EC50E06FE872E081E991E04A
S11302C00E94540B20E030E040EC50E06EE972E014
S11302D080EE91E00E94540B0F91FF90EF900895EF
S11302E0882311F030E001C036E028B181E090E0CD
S11302F002C0880F991F3A95E2F7822B88B90895B6
S1130300882311F030E001C036E028B181E090E0AC
S113031002C0880F991F3A95E2F78095822388B925
S1130320089587EB92E09F938F930E940B1D61E0E9
S113033070E080E090E00E94130E0F900F904FEF5A
S11303405FEFBA018091071290910812DDD68130D7
S113035079F4C0914203D091430300E020E030E0FF
S1130360A90160E070E080910712909108125CD5B9
S1130370C43F81E0D80778F4DF93CF938FEC92E009
S11303809F938F930E940B1D81E0AADF0F900F9023
S11303900F900F900EC0DF93CF9389EE92E09F935E
S11303A08F930E940B1D81E0ABDF0F900F900F9095
S11303B00F906DE770E080E090E00E94F80DBFCFF1
S11303C087EB92E09F938F930E940B1D64E070E093
S11303D080E090E00E94130E0F900F904FEF5FEFBC
S11303E0BA0180910712909108128ED6813079F467
S11303F0C0914003D091410300E020E030E0A90126
S113040060E070E080910712909108120DD5C43F0E
S113041081E0D80778F4DF93CF938FEC92E09F9339
S11304208F930E940B1D80E05BDF0F900F900F9065
S11304300F900EC0DF93CF9389EE92E09F938F933A
S11304400E940B1D80E05CDF0F900F900F900F90C7
S11304506DE770E080E090E00E94F80DBFCF87B1B7
S1130460816087B988B1816088B987B1806487B9B0
S113047087B1846087B987B1826087B908950F9383
S11304801F93CF93DF93882311F032E001C031E052
S1130490882311F004E001C003E025E32A95F1F775
S11304A0000028B181E090E002C0880F991F3A95BE
S11304B0E2F7922F982B98B925E32A95F1F70000DB
S11304C098B18095892388B9E1E8F0E0108184E04F
S11304D08083109285001092840010C06091840083
S11304E07091850080E090E00E94BD1420E030E52A
S11304F043EC55E40E94FA148823E4F586B1C02F36
S113050090E0002E02C0959587950A94E2F780FF4B
S1130510E5CF109285001092840010C06091840091
S11305207091850080E090E00E94BD1420E030E8E6
S11305304BEB54E40E94FA14882354F486B190E0FF
S11305400C2E02C0959587950A94E2F780FDE6CFBC
S1130550209184003091850010938100A7E5B1E0DB
S11305600E94C71B2DE730E040E050E00E949D1B35
S1130570C90102C080E090E0DF91CF911F910F91FB
S11305800895E7E0F1E080818F6080830895E8E0DA
S1130590F1E09081907F908390818F70982B90836D
S11305A00895E8E0F1E08081807F80830895E0E5AC
S11305B0F3E0A4E5B3E0B183A08313821282ECEFED
S11305C0F0E1F0934F03E0934E0313821282118201
S11305D0108288EA9DE013969C938E931297ED9374
S11305E0FC9390934B0380934A0390934D03809321
S11305F04C0380E090E8909345038093440308956E
S1130600CF93DF93EC01A0E5B3E001C0DF01ED91EE
S1130610FC911197EC17FD07C8F312968D919C91EC
S113062013979D01280F391FC217D30749F42A8154
S11306303B81820F931F13969C938E931297ED0127
S11306408A819B819E01280F391FE217F307C1F4A9
S113065020914E0330914F03E217F30771F022818A
S11306603381820F931F9B838A83ED91FC911197B1
S1130670808191819983888305C03983288302C04E
S1130680F983E883CA17DB0711F0CD93DC93DF917C
S1130690CF910895EF92FF920F931F93CF93DF931F
S11306A08C010E94DC0B80914E0390914F03892BA7
S11306B009F47DDF809144039091450380239123C5
S11306C0892B09F076C00115110549F0C80104967B
S11306D00817190718F000E010E001C08C0101159B
S11306E0110509F469C080914C0390914D03801762
S11306F0910708F464C0C0915003D0915103E0E520
S1130700F3E002C0FE01EC018A819B81801791070E
S113071020F4888199810097A9F780914E039091E4
S11307204F03C817D90709F44DC0E080F18084E075
S1130730E80EF11C88819981918380832A813B8111
S1130740201B310B2930310548F0CE01800F911F59
S1130750FC01338322831B830A8352DF2A813B817A
S113076080914C0390914D03821B930B90934D0306
S113077080934C0340914A0350914B03841795078F
S113078020F490934B0380934A0380914403909107
S11307904503282B392B3B832A83198218828091A5
S11307A04803909149030196909349038093480329
S11307B00BC0E12CF12C08C0E12CF12C05C0E12C7C
S11307C0F12C02C0E12CF12C0E941C0DE114F10467
S11307D011F40E948514C701DF91CF911F910F91ED
S11307E0FF90EF9008950F931F93CF93DF9300979B
S11307F089F1EC0124974A815B8120914403309173
S11308004503BA0162237323672B21F1688179813F
S1130810672B01F520953095242335233B832A83C8
S1130820CBD78A819B8120914C0330914D03820F59
S1130830931F90934D0380934C03CE01E1DE80918E
S11308404603909147030196909347038093460390
S11308500E941C0DDF91CF911F910F910895FC010F
S11308600396928381834FEF5FEFBA0143835483EE
S11308706583768390878783928781871082089522
S1130880FC011386128608950F931F93CF93DF9371
S1130890EB01088119812A813B810F3F4FEF140737
S11308A02407340721F4FC01A185B28511C0DC01C1
S11308B0139601C0DF011496ED91FC9115974081C8
S11308C0518162817381041715072607370790F752
S11308D01496ED91FC911597FD83EC83D783C68321
S11308E0BF83AE831596DC93CE9314979B878A8738
S11308F0FC0120812F5F2083DF91CF911F910F9105
S11309000895CF93DF93FC01A285B385C481D5817B
S1130910868197819F838E83C681D78184819581C7
S11309209D838C8311968D919C911297E817F907FA
S113093031F48681978112969C938E931197138636
S113094012868C9181508C938C91DF91CF91089574
S1130950A89590EC88E10FB6F894A8958093600070
S11309600FBE909360000895FC01608331977083FB
S11309703197108231971082319720E82083319784
S11309801082319710823197108277974083319784
S1130990508386970895DCDFA091BF11B091C011F8
S11309A0CD91CDBFDD91DEBFFF91EF91DF91CF916E
S11309B0BF91AF919F918F917F916F915F914F9173
S11309C03F912F911F910F91FF90EF90DF90CF9067
S11309D0BF90AF909F908F907F906F905F904F905B
S11309E03F902F901F900F900CBE0F900BBE0F9056
S11309F00FBE0F90089581E008950F920FB6F894FA
S1130A000F920BB60F920CB60F921F9211242F92D5
S1130A103F924F925F926F927F928F929F92AF928A
S1130A20BF92CF92DF92EF92FF920F931F932F9377
S1130A303F934F935F936F937F938F939F93AF9362
S1130A40BF93CF93DF93EF93FF93A091BF11B09126
S1130A50C0110DB60D920EB60D920E94220EA091F9
S1130A60BF11B091C011CD91CDBFDD91DEBFFF911B
S1130A70EF91DF91CF91BF91AF919F918F917F9132
S1130A806F915F914F913F912F911F910F91FF9023
S1130A90EF90DF90CF90BF90AF909F908F907F901A
S1130AA06F905F904F903F902F901F900F900CBECF
S1130AB00F900BBE0F900FBE0F9008950F920FB6BC
S1130AC0F8940F920BB60F920CB60F921F9211244A
S1130AD02F923F924F925F926F927F928F929F924A
S1130AE0AF92BF92CF92DF92EF92FF920F931F9338
S1130AF02F933F934F935F936F937F938F939F9322
S1130B00AF93BF93CF93DF93EF93FF93A091BF1164
S1130B10B091C0110DB60D920EB60D9213BE60D6F3
S1130B2081110E94220EA091BF11B091C011CD91EC
S1130B30CDBFDD91DEBFFF91EF91DF91CF91BF91EA
S1130B40AF919F918F917F916F915F914F913F9161
S1130B502F911F910F91FF90EF90DF90CF90BF9056
S1130B60AF909F908F907F906F905F904F903F9049
S1130B702F901F900F900CBE0F900BBE0F900FBEC6
S1130B800F9008959BDF1895DC0153962C91539791
S1130B90222341F05A96ED91FC915B9790818AE073
S1130BA0891B089580E008950FB6F8940F92FC0114
S1130BB0868D811102C081E001C080E00F900FBEDC
S1130BC008950FB6F8940F92FC01268D878D281393
S1130BD002C081E001C080E00F900FBE08950F9322
S1130BE01F93CF93DF93EC01042F1E8D48A1411175
S1130BF00CC088819981892B09F042C08C819D8128
S1130C000E94AC101D821C8242C0011117C050E02A
S1130C108A819B810E94FB1C28A18A819B81820F6F
S1130C20911D9B838A832C813D818217930750F108
S1130C30888199819B838A8380E029C050E08E81DA
S1130C409F810E94FB1C88A190E091958195910958
S1130C502E813F81280F391F3F832E83488159817C
S1130C602417350730F42C813D81820F931F9F8315
S1130C708E83023049F4112349F0115080E007C0FB
S1130C8080E005C080E003C080E001C080E01F5F19
S1130C901E8FDF91CF911F910F910895FC0140A108
S1130CA04423A9F050E026813781240F351F378370
S1130CB02683848195812817390720F080819181CA
S1130CC097838683CB01668177810C94FB1C0895FE
S1130CD01F93CF93DF93EC010FB6F8940F921AA1F0
S1130CE00BC08B89882351F0CE0143960E94ED0EF0
S1130CF081110E941310115011169CF38FEF8AA3D7
S1130D000F900FBE0FB6F8940F9219A10BC08885EF
S1130D10882351F0CE0108960E94ED0E81110E94A5
S1130D201310115011169CF38FEF89A30F900FBE6F
S1130D30DF91CF911F910895CF93DF93EC010FB60C
S1130D40F8940F92E881F9818F8D28A190E030E02A
S1130D50829FA001839F500D929F500D11244E0F2E
S1130D605F1F5D834C831E8EFB83EA830197289F5C
S1130D70A001299F500D389F500D1124CF01840FDD
S1130D80951F9F838E838FEF89A38AA361110BC064
S1130D908885882371F0CE0108960E94ED0E882381
S1130DA041F02BDE06C0CE01089659DDCE014396F4
S1130DB056DD0F900FBE81E0DF91CF9108950F9320
S1130DC01F93F801611103C01183008302C0518392
S1130DD04083878F60A361E0CF01AEDF1F910F9145
S1130DE00895DF92EF92FF920F931F93CF93DF93B7
S1130DF0F82EE62ED42E869FC001112483964ADC59
S1130E00EC01009741F08C012D2DAC014D5D5F4F3D
S1130E106E2D8F2DD4DFCE01DF91CF911F910F91D5
S1130E20FF90EF90DF900895CF92DF92EF92FF92C0
S1130E300F931F93CF93DF93CDB7DEB729970FB6E8
S1130E40F894DEBF0FBECDBF7C016B012E833F83C0
S1130E504887598710E00FB6F8940F92F701968DE2
S1130E60878D981710F00230A9F4402FB601C701FE
S1130E70B6DEF7019389992339F0C7014396ADD7BC
S1130E80882321F0BADD02C08111B7DD0F900FBEB7
S1130E9081E048C08E819F81A885B985892B8A2BE2
S1130EA08B2B21F40F900FBE80E03CC0111105C0C4
S1130EB0CE0101960E949C0F11E00F900FBE7CD4CE
S1130EC00FB6F8940F92F70181A18F3F09F411A294
S1130ED0F70182A18F3F09F412A20F900FBEBE0149
S1130EE06A5F7F4FCE0101960E94AD0F811116C03B
S1130EF0C70167DE882371F04E815F81688579853B
S1130F00C701089611D7C701E3DE96D58111A3CF97
S1130F1074DDA1CFC701DCDE8FD59DCFC701D8DE3C
S1130F208BD580E029960FB6F894DEBF0FBECDBFF7
S1130F30DF91CF911F910F91FF90EF90DF90CF90B1
S1130F4008950F93009769F0FC01158214821182B1
S1130F501082168200E020E030E0A90160E070E039
S1130F6063DF0F910895CF93DF93482F60E081E012
S1130F7038DFEC01E6DFCE01DF91CF910895EF92E7
S1130F80FF920F931F93CF93DF938A01FC01568D39
S1130F90378D531710F02230F1F4422F7801EC0111
S1130FA01AA18E8DCE011BDE1F3F79F48B89882315
S1130FB0A1F0CE01439611D7882389F0E114F104FE
S1130FC081F081E0F70180830DC0FF24F394F10EDA
S1130FD0FAA281E007C080E005C081E003C081E09F
S1130FE001C081E0DF91CF911F910F91FF90EF90AD
S1130FF00895CF92DF92EF92FF920F931F93CF93B6
S1131000DF93CDB7DEB729970FB6F894DEBF0FBED6
S1131010CDBF8C016B012E833F8348875987E12C18
S11310200FB6F8940F92F801F68CFF2091F0B601F8
S1131030C80134DEFA94F801F68E8085882329F0FD
S1131040C8010896CAD68111D8DC0F900FBE81E082
S11310504CC08E819F81A885B985892B8A2B8B2BC7
S113106021F40F900FBE80E040C0E11005C0CE0116
S1131070019662D7EE24E3940F900FBE9DD30FB672
S1131080F8940F92F80181A18F3F09F411A2F8019D
S113109082A18F3F09F412A20F900FBEBE016A5FB6
S11310A07F4FCE01019659D7811116C0C8017CDD4E
S11310B0882371F04E815F8168857985C8014396E4
S11310C033D6C80105DEB8D48111AACF96DCA8CFE7
S11310D0C801FEDDB1D4A4CFC801FADDADD4C80186
S11310E063DD882309F49CCF80E029960FB6F89439
S11310F0DEBF0FBECDBFDF91CF911F910F91FF9047
S1131100EF90DF90CF900895EF92FF920F931F938B
S1131110CF93DF93CDB7DEB729970FB6F894DEBF30
S11311200FBECDBF8C014E835F8368877987E12C26
S1131130F12C0FB6F8940F92F801868D8823C1F034
S11311408150868F80819181892B29F40E946E11B0
S1131150F80195838483F8018085882329F0C801E8
S113116008963BD6811149DC0F900FBE81E06AC01E
S11311708E819F81A885B985892B8A2B8B2B21F49D
S11311800F900FBE80E05EC0F11005C0CE01019645
S1131190D3D6FF24F3940F900FBE0ED30FB6F8945A
S11311A00F92F80181A18F3F09F411A2F80182A1E5
S11311B08F3F09F412A20F900FBEBE016A5F7F4FEA
S11311C0CE010196CAD6811124C0C801EDDC882362
S11311D0E1F0F80180819181892B49F40FB6F894EC
S11311E00F928481958131D7E82E0F900FBE4E81E6
S11311F05F8168857985C801439696D5C80168DD05
S11312001BD4811196CFF9DB94CFC80161DD14D4CE
S113121090CFC8015DDD10D4C801C6DC882309F471
S113122088CFEE2071F00FB6F8940F92C801ACDCB1
S1131230682FF80184819581EAD70F900FBE80E072
S113124001C080E029960FB6F894DEBF0FBECDBF73
S1131250DF91CF911F910F91FF90EF900895CF935D
S1131260DF93EC010FB6F8940F9289A18F3F09F434
S113127019A28AA18F3F09F41AA20F900FBE8E8D76
S1131280811103C0CE01439666D5CE0121DDDF91E5
S1131290CF910895E0913911F0913A118081811133
S11312A00CC08FEF9FEFDC01809303119093041126
S11312B0A0930511B09306110895E0913911F091AE
S11312C03A110780F085E02D80819181A281B3815C
S11312D08093031190930411A0930511B093061108
S11312E00895CF93DF93EC018B8D9C8D7CDACE0136
S11312F07ADADF91CF9108954F925F926F927F9245
S11313008F929F92AF92BF92CF92DF92EF92FF9211
S11313100F93CF93DF932C015B014A013901E6015E
S113132065EA70E08B8D9C8D0E94041D8B8D9C8DD5
S113133021E0821A9108880E991EA114B10489F43F
S113134015C0822F90E0F501E80FF91F3081DE010E
S1131350A80FB91F5D963C938081882329F02F5FE5
S113136001C020E0203168F31CA601C01D8E0A30A4
S113137008F009E00A8F0DA71EA6CE01029680DAB6
S1131380CE010E967DDADB87CA878AE090E0A0E082
S1131390B0E0801B9109A109B1098E879F87A88BB2
S11313A0B98BDF8BCE8B18AA1FA684E0FE01F196C1
S11313B0DF011D928A95E9F71DAAA301B201C401B8
S11313C0D3DA99838883E114F10419F0F701D18306
S11313D0C083DF91CF910F91FF90EF90DF90CF907A
S11313E0BF90AF909F908F907F906F905F904F9041
S11313F00895CF93C0E008C02BE0C29FC001112420
S11314008F5A9E4E2CDACF5FCA30B0F386E491E156
S113141026DA8BE391E123DA8CE291E120DA81E2AE
S113142091E11DDA85E191E11ADA86E491E1909384
S11314303A11809339118BE391E1909338118093A1
S11314403711CF910895CF93DF93EC010FB6F89441
S11314500F92809114118F5F809314118091BF11AA
S11314609091C011892B51F4D093C011C093BF1136
S113147080911411813091F4BCDF10C080910E1161
S113148081110CC0E091BF11F091C011928D8A8D31
S1131490891720F0D093C011C093BF118091071118
S11314A08F5F80930711EA8D80910F118E1710F4CE
S11314B0E0930F118BE08E9FF0011124EF5AFE4E42
S11314C00180F281E02DFF83EE8326813781398705
S11314D02887A681B7819E012E5F3F4F15963C93C6
S11314E02E93149737832683EA8D8E9FF00111245F
S11314F0EF5AFE4EFD87EC8780818F5F80830F90CB
S11315000FBE80910E11882349F0E091BF11F09134
S1131510C011928D8A8D981708F46FDADF91CF91FC
S11315200895CF93DF931AC00FB6F8940F92E09109
S11315302811F0912911C085D185CE010296E1D9F7
S11315408091141181508093141180912011815045
S1131550809320110F900FBECE01C3DE8091201125
S11315608111E2CFDF91CF9108958F929F92AF9234
S1131570BF92CF92DF92EF92FF92CF93DF936B01F2
S11315807C01C42F8090101190901111A090121121
S1131590B09013118091BF119091C0110296B1D9EE
S11315A08FEFC816D806E806F806B1F5CC23A1F1EA
S11315B0E5E1F1E1A181B281C091BF11D091C011E7
S11315C0BF83AE83C091BF11D091C01116968D9187
S11315D09C911797998788871696CD91DC911797D8
S11315E08091BF119091C01102969D838C8380914C
S11315F0BF119091C011029617969C938E931697E3
S1131600A091BF11B091C0111D96FC93EE931C974D
S113161080818F5F80833DC0C80CD91CEA1CFB1CF1
S1131620E091BF11F091C011C282D382E482F582AD
S1131630C814D904EA04FB0460F46091BF117091EA
S1131640C01180913711909138116E5F7F4F1CD972
S113165020C06091BF117091C01180913911909197
S11316603A116E5F7F4F10D980910311909104114C
S1131670A0910511B0910611C816D906EA06FB0619
S113168040F4C0920311D0920411E0920511F0923B
S11316900611DF91CF91FF90EF90DF90CF90BF9034
S11316A0AF909F908F9008952F923F924F925F92A8
S11316B06F927F928F929F92AF92BF92CF92DF925E
S11316C0EF92FF920F93CF93DF933C011B014A01EA
S11316D02901CA010E944A036C01892B69F086E33F
S11316E090E00E944A03EC01892B19F0DC8ECB8E2A
S11316F005C0C60178D802C0C0E0D0E0209761F0F0
S1131700A12CB12C6E019201A401B101C301F4DD3D
S1131710CE0199DE81E001C08FEFDF91CF910F916F
S1131720FF90EF90DF90CF90BF90AF909F908F90FD
S11317307F906F905F904F903F902F900895EF921D
S1131740FF920F930F2EF1E0EF2EF1E1FF2EF02D1B
S113175000E020E030E040EC50E06CE073E08CE727
S113176090E0A2DF813009F455D68130F9F4F89481
S11317708FEF9FEFDC018093031190930411A093EA
S11317800511B093061181E080930E11109210118F
S1131790109211111092121110921311E091BF11B5
S11317A0F091C01187A50E94C702F5D88091060266
S11317B00F91FF90EF900895809100118F5F8093B7
S11317C0001108950FB6F8940F9260911011709162
S11317D0111180911211909113110F900FBE089561
S11317E0CF92DF92EF92FF92CF93DF93809100111B
S11317F0811105C1C0901011D0901111E090121107
S1131800F09013118FEFC81AD80AE80AF80AC092A8
S11318101011D0921111E0921211F0921311C1140F
S1131820D104E104F104B1F48091391190913A1199
S1131830209137113091381130933A112093391196
S11318409093381180933711809108118F5F8093A2
S1131850081120DD8091031190910411A0910511CC
S1131860B0910611C816D906EA06FB0620F480E0FA
S1131870B2C081E001C080E0E0913911F0913A11E9
S1131880908191110CC04FEF5FEFBA0140930311A7
S11318905093041160930511709306119CC0E0915C
S11318A03911F0913A110780F085E02D0084F1851B
S11318B0E02D4281538164817581C416D506E60604
S11318C0F70648F4409303115093041160930511F3
S11318D07093061180C0A485B585C681D781208503
S11318E031853F832E83C085D185268137813D8311
S11318F02C8311964D915C9112979F012E5F3F4F5F
S11319004217530731F44085518512965C934E93E8
S11319101197158614869C9191509C93A08DB18D3E
S1131920109709F1C289D389448955895F834E830D
S1131930C489D589428953895D834C8311966D91FD
S11319407C911297AF01425F5F4F6417750731F4C2
S11319504489558912965C934E931197118E108E7B
S11319609C9191509C93A28D90910F119A1710F411
S1131970A0930F119BE09A9FD0011124AF5ABE4E41
S113198011960D90BC91A02DB783A68316964D9108
S11319905C911797518740871696CD91DC911797E4
S11319A03D832C8317963C932E931697A28D9A9F72
S11319B0D0011124AF5ABE4EB587A4879C919F5F76
S11319C09C93228DE091BF11F091C011928D291743
S11319D008F04FCF51CFE091BF11F091C011E28DCB
S11319E09BE0E99FF0011124EF5AFE4E9081923062
S11319F008F081E090910911911116C016C08091F0
S1131A000A1190910B11A0910C11B0910D11019636
S1131A10A11DB11D80930A1190930B11A0930C1179
S1131A20B0930D1180E001C081E0DF91CF91FF9070
S1131A30EF90DF90CF900895CF92DF92EF92FF92D4
S1131A40CF93DF930FB6F8940F92809100118150D9
S1131A5080930011809100118111BEC080911411F6
S1131A60811188C0BCC0E0913311F091341100841D
S1131A70F185E02DA08DB18DC289D38984899589A2
S1131A809F838E83C489D589828993899D838C831E
S1131A9011962D913C911297CF010E962817390774
S1131AA031F48489958912969C938E931197118EA3
S1131AB0108E8C9181508C93A485B585C681D78175
S1131AC0808591859F838E83C085D185868197810A
S1131AD09D838C8311968D919C9112979F012E5F0B
S1131AE03F4F8217930731F48085918512969C931A
S1131AF08E931197158614868C9181508C93A28DA8
S1131B0080910F118A1710F4A0930F118BE08A9F14
S1131B10D0011124AF5ABE4E11960D90BC91A02D48
S1131B20B783A68316964D915C911797518740878A
S1131B301696CD91DC9117973D832C8317963C9391
S1131B402E931697A28D8A9FD0011124AF5ABE4EB0
S1131B50B587A4878C918F5F8C93928DA091BF11D0
S1131B60B091C0115A968C91981730F081E080930F
S1131B70091102C0E0E0F0E080912C11811173CFD3
S1131B80EF2B09F087DBC0900A11D0900B11E09085
S1131B900C11F0900D11C114D104E104F104A1F071
S1131BA01FDE882319F081E08093091181E0C81AAF
S1131BB0D108E108F108A1F710920A1110920B1153
S1131BC010920C1110920D1180910911882331F09B
S1131BD00E94FD0481E003C080E001C080E00F901A
S1131BE00FBEDF91CF91FF90EF90DF90CF900895DB
S1131BF0CF92DF92EF92FF926B017C01672B682BEF
S1131C00692B39F0D9DD40E0C701B601AEDC14DF41
S1131C1001C080E0811102C00E94FD04FF90EF909A
S1131C20DF90CF900895009721F48091BF11909197
S1131C30C0110FB6F8940F92FC0170AB67A70F9018
S1131C400FBE089580910011882321F081E08093D4
S1131C500911089510920911E091BF11F091C0117A
S1131C6087A50E94D102E091BF11F091C01120819B
S1131C703181E091BF11F091C011838D948D821751
S1131C80930758F06091BF117091C011635E7F4F4C
S1131C908091BF119091C01144D680910F1101C061
S1131CA08150282F30E09BE0929FF001939FF00D2C
S1131CB01124EF5AFE4E9081992391F39BE0929F59
S1131CC0A001939F500D1124DF010180F281E02DCA
S1131CD00480F581E02D1296FC93EE9311974C5AF3
S1131CE05E4EE417F50729F444815581FD015283C2
S1131CF041839BE0929FF001939FF00D1124EF5AD2
S1131D00FE4E0180F281E02D208531853093C01193
S1131D102093BF1180930F11E091BF11F091C01176
S1131D2087A50C94C7020895CF92DF92EF92FF9299
S1131D306A017B016091BF117091C011625F7F4F96
S1131D400E94440441E0C701B6010FDCFF90EF900C
S1131D50DF90CF900895CF93DF93FC01CB01BA01BC
S1131D60A181B281C091BF11D091C011BB8BAA8B4C
S1131D70C091BF11D091C01116964D915C911797E7
S1131D805D8B4C8B1696CD91DC9117974091BF11CA
S1131D905091C011425F5F4F5D834C834091BF11EE
S1131DA05091C011425F5F4F17965C934E93169704
S1131DB0A091BF11B091C0115996FC93EE9358971E
S1131DC030813F5F3083222319F06FEF7FEFCB0127
S1131DD0422FCBDBDF91CF910895CF93DF93DC01CA
S1131DE01796ED91FC9118970084F185E02DA08D54
S1131DF0B18DC289D389848995899F838E83C4894F
S1131E00D589828993899D838C8311968D919C9128
S1131E1012979F01225F3F4F8217930731F4848901
S1131E20958912969C938E931197118E108E8C9196
S1131E3081508C9380910011811152C0A485B58585
S1131E40C681D781808591859F838E83C085D18506
S1131E50868197819D838C8311968D919C91129795
S1131E609F012E5F3F4F8217930731F48085918540
S1131E7012969C938E931197158614868C9181509B
S1131E808C93A28D80910F118A1710F4A0930F11D7
S1131E908BE08A9FD0011124AF5ABE4E11960D904B
S1131EA0BC91A02DB783A68316964D915C9117978C
S1131EB0518740871696CD91DC9117973D832C83EB
S1131EC017963C932E931697A28D8A9FD0011124C6
S1131ED0AF5ABE4EB587A4878C918F5F8C931CC07C
S1131EE04CE251E1DA011196CD91DC911297D38B3A
S1131EF0C28B8E819F81958B848B8E819F81DC0127
S1131F0015963C932E9314973F832E83518F408FC5
S1131F10DA018C918F5F8C93928DE091BF11F091D7
S1131F20C011828D891720F481E08093091101C0CA
S1131F3080E0DF91CF91089520910811FC01208366
S1131F40409110115091111160911211709113115F
S1131F50418352836383748308958F929F92AF92D7
S1131F60BF92CF92DF92EF92FF920F931F93CF9382
S1131F70DF93FB010FB6F8940F92C0901011D0902C
S1131F801111E0901211F0901311DC0111960D91D2
S1131F901D912D913C91149746015701801A910A85
S1131FA0A20AB30A40815181628173814F3FBFEF1E
S1131FB05B076B077B0739F1EC01B881A09108112D
S1131FC0BA1759F0C016D106E206F30630F01082B3
S1131FD011821282138281E017C084169506A60628
S1131FE0B70658F4481959096A097B094083518393
S1131FF062837383A1DF80E007C0108211821282A2
S1132000138281E001C080E00F900FBEDF91CF9179
S11320101F910F91FF90EF90DF90CF90BF90AF9002
S11320209F908F90089581E0809309110895809185
S11320300E11882331F080910011811104C082E0D7
S1132040089581E0089580E008950F931F93CF933E
S1132050DF93FC01892B09F477C0828DA091BF1115
S1132060B091C0115A969C91891708F063C04685B7
S1132070578560897189772394F0A091BF11B0913D
S1132080C0115A969C914AE050E060E070E0491B10
S113209051096109710946875787608B718B2485C3
S11320A035854BE0849FC00111248F5A9E4E28171A
S11320B03907B9F5EF018F010E5F1F4FC8010E9468
S11320C08104E091BF11F091C011E28DEA8F8091FB
S11320D00F118E1710F4E0930F118BE08E9FF00117
S11320E01124EF5AFE4E0180F281E02DFF83EE832E
S11320F02681378139872887A681B78115961C9355
S11321000E93149717830683EA8D8E9FF001112492
S1132110EF5AFE4EFD87EC8780818F5F808381E0DC
S113212016C0A091BF11B091C0115A968C91828FA4
S113213081E00DC095A5E091BF11F091C011828D91
S1132140981720F080E003C080E001C081E0DF91B7
S1132150CF911F910F9108950F931F93CF93DF9306
S1132160FC01892B09F449C086A5815086A7228DDC
S113217095A5291709F443C0811143C0EF018F01CC
S11321800E5F1F4FC8010E948104EDA5EA8F8AE00B
S113219090E0A0E0B0E08E1B9109A109B1098E87FF
S11321A09F87A88BB98B80910F118E1710F4E09341
S11321B00F118BE08E9FF0011124EF5AFE4E018027
S11321C0F281E02DFF83EE832681378139872887CA
S11321D0A681B78115961C930E93149717830683D3
S11321E0EA8D8E9FF0011124EF5AFE4EFD87EC8795
S11321F080818F5F808381E005C080E003C080E040
S113220001C080E0DF91CF911F910F9108950F934A
S11322101F93CF93DF93FC01892B09F45AC085A542
S1132220861708F4862F928D891709F452C026A5C3
S1132230213009F04EC0828F4685578560897189A7
S1132240772364F04AE050E060E070E0481B5109F5
S11322506109710946875787608B718B24853585A1
S11322604BE0949FC00111248F5A9E4E28173907C2
S113227081F5EF018F010E5F1F4FC8010E94810499
S1132280EA8D80910F118E1710F4E0930F118BE0FB
S11322908E9FF0011124EF5AFE4E0180F281E02D51
S11322A0FF83EE832681378139872887A681B7810A
S11322B015961C930E93149717830683EA8D8E9FAD
S11322C0F0011124EF5AFE4EFD87EC8780818F5F69
S11322D08083DF91CF911F910F9108958091BF1159
S11322E09091C011892B39F0E091BF11F091C01188
S11322F086A58F5F86A78091BF119091C011089524
S1132300DC01E091CB11F091CC11808191E081113D
S113231090E09C93911108C00780F085E02D6081C6
S1132320718182819381089560E070E0CB0108950A
S1132330CF92DF92EF92FF920F931F93FC0142839F
S1132340538364837583938782870417150726074D
S11323503707C0F00C191D092E093F09868597859A
S1132360A089B189081719072A073B0700F5BF019F
S11323706E5F7F4F8091C9119091CA110E944404ED
S113238080E018C00C151D052E053F0528F44C15DA
S11323905D056E057F0568F4BF016E5F7F4F809118
S11323A0CB119091CC110E94440480E003C081E0E1
S11323B001C081E01F910F91FF90EF90DF90CF90CB
S11323C008950FB6F8940F928091C7119091C81197
S11323D0892BE9F488ED91E10E942F048DEC91E1C1
S11323E00E942F0488ED91E19093CC118093CB113E
S11323F08DEC91E19093CA118093C91140E067E09C
S11324008AE00E94F1069093C8118093C7110F903F
S11324100FBE0895EF92FF920F93D3DF8091C711FF
S11324209091C811892B89F00F2EF5ECEF2EF1E174
S1132430FF2EF02D03E020E030E040EC50E061E1BD
S113244073E086E890E030D901C080E00F91FF90FE
S1132450EF9008958F929F92AF92BF92CF92DF92A6
S1132460EF92FF920F931F93CF93DF93CDB7DEB715
S113247027970FB6F894DEBF0FBECDBFE091C7110A
S1132480F091C811309781F169832A833B834C838F
S11324905D839F838E836630F4F4C9DD823069F4F2
S11324A000E0A7019601BE016F5F7F4F8091C711C5
S11324B09091C8110E94140718C000E020E030E099
S11324C0A901BE016F5F7F4F8091C7119091C81120
S11324D00E9414070AC020E0A801BE016F5F7F4F6D
S11324E0CF010E94BF0701C080E027960FB6F89481
S11324F0DEBF0FBECDBFDF91CF911F910F91FF9033
S1132500EF90DF90CF90BF90AF909F908F90089501
S11325108F929F92AF92BF92CF92DF92EF92FF92EF
S11325200F931F93CF93DF933BC00780F085E02D7B
S113253080809180A280B380C085D1858E010E5F9A
S11325401F4FC8010E948104EC89FD89CE011995B1
S11325508E8982FF25C08E859F85A889B989880DBB
S1132560991DAA1DBB1D88169906AA06BB0670F400
S11325708A839B83AC83BD83DB87CA87B801809140
S1132580CB119091CC110E9444040AC0C12CD12CCF
S1132590760100E010E0A501940160E0CE015ADF6D
S11325A0E091CB11F091CC1180818111BECF80914B
S11325B0C9119091CA119093CC118093CB11F093CF
S11325C0CA11E093C911DF91CF911F910F91FF9030
S11325D0EF90DF90CF90BF90AF909F908F90089531
S11325E0CF92DF92EF92FF92CF93DF93EC01EAD880
S11325F06B017C018091C1119091C211A091C31112
S1132600B091C411C816D906EA06FB0620F480DF8F
S113261081E0888301C01882C092C111D092C21196
S1132620E092C311F092C411C701B601DF91CF91BA
S1132630FF90EF90DF90CF9008954F925F926F924A
S11326407F928F929F92AF92BF92CF92DF92EF923E
S1132650FF920F931F93CF93DF934B015C012901EA
S11326603A01E091CB11F091CC110780F085E02D77
S1132670C085D185CE0102960E9481048E8982FF95
S11326801BC04E855F8568897989480D591D6A1D6F
S11326907B1D7501640193018201CE0149DE88230B
S11326A069F0C12CD12C760100E010E0A501940161
S11326B060E0CE01CFDE02C08E7F8E8BEC89FD8977
S11326C0CE011995DF91CF911F910F91FF90EF905B
S11326D0DF90CF90BF90AF909F908F907F906F903E
S11326E05F904F9008958F929F92AF92BF92CF9236
S11326F0DF92EF92FF921F93CF93DF931F92CDB798
S1132700DEB76B017C01142F57D8CE01019668DF28
S11327104B015C01898181112BC011110CC08C14F7
S11327209D04AE04BF0438F087D9A5019401C70104
S1132730B60183DF1EC0112341F0E091C911F0916D
S1132740CA11808111E0811110E0B701A601481976
S113275059096A097B09212F8091C7119091C811E9
S11327600E942F0969D9811104C00E94FD0401C08F
S113277063D90F90DF91CF911F91FF90EF90DF907D
S1132780CF90BF90AF909F908F900895AF92BF92DB
S1132790CF92DF92EF92FF920F931F93CF93DF9329
S11327A0CDB7DEB728970FB6F894DEBF0FBECDBF06
S11327B081C0898188230CF47DC0AE80BF80D5019F
S11327C01C968D919C911D97892B21F0C501029631
S11327D00E948104CE01089603DF8B019C01E981EC
S11327E00E2E000CFF0BEA30F10508F063C08827B9
S11327F0EE58FF4F8F4FC3C7F50186898160868BE2
S1132800CA80DB80EC80FD804685578560897189AC
S11328104C0D5D1D6E1D7F1DC5018ADD882309F4E5
S113282049C0D5015496ED91FC915597C501199570
S1132830F501868982FF3EC04A815B816C817D817E
S113284086859785A089B1899A01AB01280F391F24
S11328504A1F5B1FC12CD12C760100E010E060E020
S1132860C501F8DD27C0D50156968C9156978E7F09
S113287056968C931FC0F50186898160868B4A81A8
S11328805B816C817D8146875787608B718B400F9C
S1132890511F621F731F68017901C50149DD0AC018
S11328A0F501868981FD04C0C5010E94F30302C0BD
S11328B08E7F868B20E030E0A901BE016F5F7F4FE1
S11328C08091C7119091C8110E94F907811171CFAD
S11328D028960FB6F894DEBF0FBECDBFDF91CF911F
S11328E01F910F91FF90EF90DF90CF90BF90AF902A
S11328F00895089584B1806884B985B1806885B9E4
S1132900089583B1806883B90895F4DF2FEF80E7D9
S113291092E0215080409040E1F700C00000F1DFD8
S1132920F5CFE8DF2FEF87EA91E621508040904011
S1132930E1F700C00000E5DFF5CF0E94C10280E0AE
S11329409FD085E090E0A3D187B1816087B988B139
S11329508E7F88B987B1806487B988B18F7B88B945
S11329600E942F0289E193E00C941E1D0895E5DF77
S11329700E9431010E949F0BFFCFE89409C097FB8E
S11329803EF490958095709561957F4F8F4F9F4F42
S11329909923A9F0F92F96E9BB279395F695879586
S11329A077956795B795F111F8CFFAF4BB0F11F449
S11329B060FF1BC06F5F7F4F8F4F9F4F16C08823F0
S11329C011F096E911C0772321F09EE8872F762F26
S11329D005C0662371F096E8862F70E060E02AF067
S11329E09A95660F771F881FDAF7880F9695879553
S11329F097F9089503D008F48FEF0895990F00080C
S1132A00550FAA0BE0E8FEEF16161706E807F907BC
S1132A10C0F012161306E407F50798F0621B730B57
S1132A20840B950B39F40A2661F0232B242B252BD8
S1132A3021F408950A2609F4A140A6958FEF811D7B
S1132A40811D0895CF93DF931F92CDB7DEB7BE01EA
S1132A506F5F7F4F8091E3119091E4112DD281112A
S1132A60F6CF898190E00F90DF91CF910895682F80
S1132A708091E3119091E411F4D180E090E0089505
S1132A808F929F92AF92CF92EF920F93812C912CC1
S1132A906894AA24A7F86894CC24C7F8E12C00E031
S1132AA023E040E051EE60E070E03FD19093E41108
S1132AB08093E311EDE0F2E187E092E0918380837B
S1132AC0938382830F91EF90CF90AF909F908F90DC
S1132AD0089590E0FC01EE0FFF1FE80FF91FEE0FC1
S1132AE0FF1FEB51FE4E238121111FC09C01220FB9
S1132AF0331FF901E80FF91FEE0FFF1FEB51FE4ED4
S1132B00A081B1814C91F901E80FF91FEE0FFF1F6D
S1132B10EB51FE4E81E090E0028002C0880F991FC5
S1132B200A94E2F7842B8C930895FC01EE0FFF1FA7
S1132B30DF01A80FB91FAA0FBB1FAB51BE4E0D90EA
S1132B40BC91A02D2C91E80FF91FEE0FFF1FEB5144
S1132B50FE4E81E090E0028002C0880F991F0A9423
S1132B60E2F7809582238C93089590E0FC01EE0FA8
S1132B70FF1FE80FF91FEE0FFF1FEB51FE4E2381DD
S1132B80211120C09C01220F331FF901E80FF91F06
S1132B90EE0FFF1FEB51FE4EA081B1814C91F90164
S1132BA0E80FF91FEE0FFF1FEB51FE4E81E090E09E
S1132BB0028002C0880F991F0A94E2F7809584234B
S1132BC08C930895FC01EE0FFF1FDF01A80FB91FBE
S1132BD0AA0FBB1FAB51BE4E0D90BC91A02D2C91E2
S1132BE0E80FF91FEE0FFF1FEB51FE4E81E090E05E
S1132BF0028002C0880F991F0A94E2F7822B8C93FB
S1132C000895CC24C394D12C6894BB24B2F8C5EEA7
S1132C10D1E110E08C81813081F018F1823061F5CE
S1132C20E881F9812081C6010A8002C0880F991FBA
S1132C300A94E2F7822780831FC08D818F5F8630DC
S1132C4010F48D8319C01D82E881F9812081C601A9
S1132C500A8002C0880F991F0A94E2F782278083B2
S1132C600BC00D81002329F0812F7FDF01500D83DC
S1132C7003C0BC82812F2DDF1F5F2696143051F6CE
S1132C806CE070E080E090E00E94F80DC0CFEF921D
S1132C90FF920F931F93CF93DF93082F80E487B99C
S1132CA0C5EED1E10F2EF8E2EF2EF12CF02DF982D2
S1132CB0E88286E08A831B8214E01C8380E009DFBB
S1132CC080E887B9FF82EE8287E0888719861A87B1
S1132CD081E0FFDE80E283BB84E390E09D878C8704
S1132CE085E08E871F86188B82E0F3DE80E1809377
S1132CF0010182E091E09B8B8A8B1C8B1D8A1E8BC9
S1132D0083E0E7DEE12CF12C20E030E040EC50E001
S1132D1068E373E081E096E10E94540BDF91CF9168
S1132D201F910F91FF90EF9008952F923F924F9231
S1132D305F926F927F928F929F92AF92CF92EF9217
S1132D40FF920F931F93CF93DF93CDB7DEB7F82E87
S1132D502A013B0188E090E029D58C018F2D90E079
S1132D60FC01EE0FFF1FE350FE4E1183008301159B
S1132D70110509F464C0880F991FFC01EB5EFD4F37
S1132D8080819181D8018D939C938C2D90E0880F44
S1132D90991F880F991F0AD51C0186E090E006D57B
S1132DA07C014C2DB10100D3F801F582E4828A2D17
S1132DB090E0880F991F880F991FF8D41C0186E0B2
S1132DC090E0F4D47C014A2DB101EED2D8011396DF
S1132DD0FC92EE92129717969C928E921697FFB6DB
S1132DE0F894ED91FC9111973697808182608083ED
S1132DF08D909C90C301B201C0DD20E030E040E042
S1132E0051E438D49B01AC0160E074E284E79BE4B4
S1132E104CD320E030E040E85FE3E2D2AED3F401EB
S1132E2032976083D801ED91FC911197359788E929
S1132E308083ED91FC91349786E08083FFBEC801C6
S1132E40DF91CF911F910F91FF90EF90CF90AF90B2
S1132E509F908F907F906F905F904F903F902F90B6
S1132E600895CF93DF93DC01892B01F11296ED9144
S1132E70FC911397938182812581981B92238481ED
S1132E809817B1F0838126952823C081D181C20F80
S1132E90D11D68838F5F958189238383ED91FC9194
S1132EA0359780818062808380E003C081E001C027
S1132EB082E0DF91CF9108950097D1F0DC01149660
S1132EC0ED91FC91159793818281981799F09281E5
S1132ED0858186958923A081B181A80FB11D8C912C
S1132EE0DB018C939F5F85819823928380E0089512
S1132EF081E0089583E008951F920F920FB60F9218
S1132F0011240BB60F922F933F934F935F936F93BC
S1132F107F938F939F93AF93BF93CF93DF93EF935D
S1132F20FF93A091FD11B091FE11109711F16091E2
S1132F30C6001496ED91FC911597938182812581A9
S1132F40981B92238481981761F083812695282306
S1132F50C081D181C20FD11D68838F5F9581892380
S1132F6083831696ED91FC911797309711F0CD015C
S1132F701995FF91EF91DF91CF91BF91AF919F91FF
S1132F808F917F916F915F914F913F912F910F900E
S1132F900BBE0F900FBE0F901F9018951F920F92AB
S1132FA00FB60F9211240BB60F922F938F939F930A
S1132FB0AF93BF93EF93FF93E091FD11F091FE1156
S1132FC03097B9F00280F381E02D938182819817C4
S1132FD0B1F092818581282F26952923A081B18182
S1132FE0A20FB11D2C919F5F892382832093C60079
S1132FF00BC0E1ECF0E080818F7D808305C0E1ECC3
S1133000F0E080818F7D8083FF91EF91BF91AF913C
S11330109F918F912F910F900BBE0F900FBE0F9029
S11330201F9018951F920F920FB60F9211240BB692
S11330300F922F933F934F935F936F937F938F934D
S11330409F93AF93BF93CF93DF93EF93FF93A0919D
S1133050FF11B0910012109711F16091CE001496F7
S1133060ED91FC911597938182812581981B922380
S11330708481981761F0838126952823C081D181AA
S1133080C20FD11D68838F5F958189238383169630
S1133090ED91FC911797309711F0CD011995FF919F
S11330A0EF91DF91CF91BF91AF919F918F917F91DC
S11330B06F915F914F913F912F910F900BBE0F90A5
S11330C00FBE0F901F9018951F920F920FB60F927C
S11330D011240BB60F922F938F939F93AF93BF93AB
S11330E0EF93FF93E091FF11F09100123097B9F044
S11330F00280F381E02D938182819817B1F092814F
S11331008581282F26952923A081B181A20FB11D85
S11331102C919F5F892382832093CE000BC0E9EC1E
S1133120F0E080818F7D808305C0E9ECF0E0808150
S11331308F7D8083FF91EF91BF91AF919F918F918C
S11331402F910F900BBE0F900FBE0F901F901895EC
S11331501F920F920FB60F9211240BB60F922F935A
S11331603F934F935F936F937F938F939F93AF930B
S1133170BF93CF93DF93EF93FF93A0910112B0918C
S11331800212109711F16091D6001496ED91FC9102
S11331901597938182812581981B922384819817A6
S11331A061F0838126952823C081D181C20FD11D6E
S11331B068838F5F9581892383831696ED91FC91B3
S11331C01797309711F0CD011995FF91EF91DF9189
S11331D0CF91BF91AF919F918F917F916F915F91AB
S11331E04F913F912F910F900BBE0F900FBE0F90F8
S11331F01F9018951F920F920FB60F9211240BB6C1
S11332000F922F938F939F93AF93BF93EF93FF935B
S1133210E0910112F09102123097B9F00280F3812B
S1133220E02D938182819817B1F092818581282FB6
S113323026952923A081B181A20FB11D2C919F5FF6
S1133240892382832093D6000BC0E1EDF0E08081D6
S11332508F7D808305C0E1EDF0E080818F7D8083E8
S1133260FF91EF91BF91AF919F918F912F910F900B
S11332700BBE0F900FBE0F901F9018951F920F92C8
S11332800FB60F9211240BB60F922F933F934F93C7
S11332905F936F937F938F939F93AF93BF93CF93DA
S11332A0DF93EF93FF93A0910312B0910412109750
S11332B011F1609136011496ED91FC91159793816B
S11332C082812581981B92238481981761F08381E0
S11332D026952823C081D181C20FD11D68838F5FB9
S11332E09581892383831696ED91FC9117973097E6
S11332F011F0CD011995FF91EF91DF91CF91BF911D
S1133300AF919F918F917F916F915F914F913F9179
S11333102F910F900BBE0F900FBE0F901F9018951A
S11333201F920F920FB60F9211240BB60F922F9388
S11333308F939F93AF93BF93EF93FF93E091031207
S1133340F09104123097B9F00280F381E02D93815B
S113335082819817B1F092818581282F269529239F
S1133360A081B181A20FB11D2C919F5F892382831B
S1133370209336010BC0E1E3F1E080818F7D8083EF
S113338005C0E1E3F1E080818F7D8083FF91EF91BF
S1133390BF91AF919F918F912F910F900BBE0F9082
S11333A00FBE0F901F901895FC01411101C01FD34F
S11333B0842F90E09C012150310982239323892B8F
S11333C009F015D3413808F012D3128213824483D2
S11333D0440F415045837183608380E090E00895F9
S11333E05058BB27AA270ED00BC1FCD030F001D116
S11333F020F031F49F3F11F41EF4F1C00EF4E09577
S1133400E7FBE7C0E92F0DD180F3BA176207730712
S11334108407950718F071F49EF525C10EF4E09524
S11334200B2EBA2FA02D0B01B90190010C01CA017A
S1133430A0011124FF27591B99F0593F50F4503E25
S113344068F11A16F040A22F232F342F4427585F17
S1133450F3CF469537952795A795F0405395C9F72F
S11334607EF41F16BA0B620B730B840BBAF09150E7
S1133470A1F0FF0FBB1F661F771F881FC2F70EC086
S1133480BA0F621F731F841F48F487957795679559
S1133490B795F7959E3F08F0B3CF9395880F08F042
S11334A09927EE0F9795879508950CD0A9C0A1D0C0
S11334B040F098D030F021F45F3F19F08AC05111E8
S11334C0D3C08DC0AED098F39923C9F35523B1F37B
S11334D0951B550BBB27AA2762177307840738F07F
S11334E09F5F5F4F220F331F441FAA1FA9F333D0DE
S11334F00E2E3AF0E0E830D091505040E695001C92
S1133500CAF729D0FE2F27D0660F771F881FBB1F4D
S1133510261737074807AB07B0E809F0BB0B802D27
S1133520BF01FF2793585F4F2AF09E3F510568F073
S113353050C09AC05F3FECF3983EDCF386957795D4
S11335406795B795F7959F5FC9F7880F911D969575
S1133550879597F90895E1E0660F771F881FBB1FD1
S1133560621773078407BA0720F0621B730B840B7E
S1133570BA0BEE1F88F7E09508955BD088F09F574B
S113358090F0B92F9927B751A0F0D1F0660F771FAB
S1133590881F991F1AF0BA95C9F712C0B13081F08B
S11335A062D0B1E008955FC0672F782F8827B85F95
S11335B039F0B93FCCF3869577956795B395D9F7EC
S11335C03EF490958095709561957F4F8F4F9F4FF6
S11335D0089597F99F6780E870E060E008959FEF91
S11335E080EC089500240A94161617061806090696
S11335F0089500240A941216130614060506089565
S1133600092E0394000C11F4882352F0BB0F40F4EC
S1133610BF2B11F460FF04C06F5F7F4F8F4F9F4F2C
S1133620089557FD9058440F551F59F05F3F71F0AE
S11336304795880F97FB991F61F09F3F79F0879515
S11336400895121613061406551FF2CF4695F1DF9E
S113365008C0161617061806991FF1CF869571052E
S1133660610508940895E894BB2766277727CB0162
S113367097F908950BD0C4CFB5DF28F0BADF18F05E
S1133680952309F0A6CFABCF1124EECFCADFA0F368
S1133690959FD1F3950F50E0551F629FF001729FE3
S11336A0BB27F00DB11D639FAA27F00DB11DAA1F02
S11336B0649F6627B00DA11D661F829F2227B00D4F
S11336C0A11D621F739FB00DA11D621F839FA00DDA
S11336D0611D221F749F3327A00D611D231F849F2A
S11336E0600D211D822F762F6A2F11249F57504081
S11336F08AF0E1F088234AF0EE0FFF1FBB1F661F1C
S1133700771F881F91505040A9F79E3F510570F0D4
S113371060CFAACF5F3FECF3983EDCF386957795B4
S11337206795B795F795E7959F5FC1F7FE2B880FCF
S1133730911D9695879597F90895A1E21A2EAA1BD3
S1133740BB1BFD010DC0AA1FBB1FEE1FFF1FA2174D
S1133750B307E407F50720F0A21BB30BE40BF50B4A
S1133760661F771F881F991F1A9469F760957095D3
S1133770809590959B01AC01BD01CF010895EE0F9A
S1133780FF1F881F8BBF0790F691E02D1994A29F0D
S1133790B001B39FC001A39F700D811D1124911D21
S11337A0B29F700D811D1124911D08950F931F93D5
S11337B0CF93DF938230910510F482E090E0E091A2
S11337C00B12F0910C1220E030E0A0E0B0E0309752
S11337D019F1408151810281138148175907C8F0BA
S11337E08417950769F4109731F012960C93129789
S11337F013961C9327C000930B1210930C1222C033
S11338002115310519F04217530718F49A01BD0127
S1133810EF01DF01F801DBCF21153105F9F0281B99
S1133820390B2430310580F48A819B81611571053F
S113383021F0FB019383828304C090930C12809344
S11338400B12FE01329644C0FE01E20FF31F819376
S1133850919322503109398328833AC02091091267
S113386030910A12232B41F4209102023091030279
S113387030930A1220930912209100023091010220
S11338802115310541F42DB73EB740910402509102
S11338900502241B350BE0910912F0910A12E2177C
S11338A0F307A0F42E1B3F0B2817390778F0AC015F
S11338B04E5F5F4F2417350748F04E0F5F1F50933C
S11338C00A12409309128193919302C0E0E0F0E060
S11338D0CF01DF91CF911F910F910895CF93DF9383
S11338E0009709F481C0FC01329713821282A091DF
S11338F00B12B0910C12109781F420813181820F48
S1133900931F2091091230910A122817390751F593
S1133910F0930A12E093091267C0ED0120E030E051
S1133920CE17DF0740F44A815B819E0141155105A2
S1133930F1F0EA01F5CFD383C28340815181840F32
S1133940951FC817D90759F488819981840F951F49
S11339500296918380838A819B819383828321153C
S1133960310529F4F0930C12E0930B123DC0E901E8
S1133970FB83EA8349915991C40FD51FEC17FD07C6
S113398061F480819181840F951F0296E9019983E6
S11339908883828193819B838A83E0E0F0E012969E
S11339A08D919C911397009719F0FD01DC01F7CFDD
S11339B08D919C9111979D012E5F3F4F820F931F14
S11339C02091091230910A122817390769F43097A7
S11339D029F410920C1210920B1202C0138212825C
S11339E0B0930A12A0930912DF91CF91089581E058
S11339F090E0F89400C3FB01DC0102C001900D9239
S1133A0041505040D8F70895DC0101C06D934150F6
S1133A105040E0F70895CF93DF93CDB7DEB7AE0102
S1133A204A5F5F4FFA0161917191AF0180910F126A
S1133A309091101233D0DF91CF9108950F931F937B
S1133A40CF93DF93E0910F12F0911012238121FFA5
S1133A501BC08C01D0E0C0E0F80181918F0160911E
S1133A600F1270911012DB011896ED91FC911997C9
S1133A70882331F01995892B79F3DFEFCFEFECCF61
S1133A808AE01995892B19F08FEF9FEF02C08D2FD3
S1133A909C2FDF91CF911F910F9108952F923F9208
S1133AA04F925F926F927F928F929F92AF92BF924A
S1133AB0CF92DF92EF92FF920F931F93CF93DF93F6
S1133AC0CDB7DEB72B970FB6F894DEBF0FBECDBFD0
S1133AD06C017B018A01FC0117821682838181FFBC
S1133AE0BFC1CE0101963C01F6019381F70193FD1C
S1133AF0859193FF81917F01882309F4ADC18532BB
S1133B0039F493FD859193FF81917F01853221F4EE
S1133B10B60190E0D6D1E8CF912C212C312CFFE1D5
S1133B20F315D8F08B3279F038F4803279F083329F
S1133B30A1F4232D20611DC08D3261F0803369F41E
S1133B40232D216016C0832D8260382EE32DE4607E
S1133B503E2E2AC0F32DF8601DC037FC2DC020ED89
S1133B60280F2A3040F08E32B9F436FC75C1232D6B
S1133B702064322E19C036FE06C08AE0989E200DBD
S1133B801124922E11C0EAE02E9E200D1124222E23
S1133B90F32DF0623F2E08C08C3621F4832D80680B
S1133BA0382E02C0883641F4F70193FD859193FFC6
S1133BB081917F018111B3CF982F9F7D95549330CC
S1133BC028F40C5F1F4F9FE399830DC0833631F0B7
S1133BD0833771F0833509F055C020C0F801808126
S1133BE089830E5F1F4F88248394912C530112C044
S1133BF02801F2E04F0E511CF801A080B18036FE7E
S1133C0003C0692D70E002C06FEF7FEFC5014ED194
S1133C104C018201F32DFF773F2E15C0280122E0CD
S1133C20420E511CF801A080B18036FE03C0692DFC
S1133C3070E002C06FEF7FEFC5012DD14C01F32D71
S1133C40F0683F2E820133FC19C0822D90E0881663
S1133C509906A0F4B60180E290E033D12A94F5CF1E
S1133C60F50137FC859137FE81915F01B60190E043
S1133C7028D121102A9421E0821A910881149104F8
S1133C8079F7E1C0843611F0893639F5F80137FE49
S1133C9007C060817181828193810C5F1F4F08C0CE
S1133CA060817181072E000C880B990B0E5F1F4FEA
S1133CB0F32DFF763F2E97FF09C090958095709560
S1133CC061957F4F8F4F9F4FF0683F2E2AE030E081
S1133CD0A30133D1882E861844C0853731F4232DAF
S1133CE02F7EB22E2AE030E025C0932D997FB92E85
S1133CF08F36C1F018F4883579F0AEC0803719F0EA
S1133D00883721F0A9C0E92FE061BE2EB4FE0DC0B2
S1133D10FB2DF460BF2E09C034FE0AC0292F266093
S1133D20B22E06C028E030E005C020E130E002C039
S1133D3020E132E0F801B7FE07C060817181828121
S1133D4093810C5F1F4F06C06081718180E090E019
S1133D500E5F1F4FA301F1D0882E8618FB2DFF772D
S1133D603F2E36FE0DC0232D2E7FA22E891458F42B
S1133D7034FE0BC032FC09C0832D8E7EA82E05C0F4
S1133D80B82CA32C03C0B82C01C0B92CA4FE0FC0BE
S1133D90FE01E80DF11D8081803321F49A2D997E76
S1133DA0A92E09C0A2FE06C0B394B39404C08A2D00
S1133DB0867809F0B394A3FC10C0A0FE06C0B21428
S1133DC080F4280C922C9B180DC0B21458F4B60140
S1133DD080E290E076D0B394F8CFB21418F42B18A4
S1133DE002C0982C212CA4FE0FC0B60180E390E001
S1133DF068D0A2FE16C0A1FC03C088E790E002C010
S1133E0088E590E0B6010CC08A2D867851F0A1FEB9
S1133E1002C08BE201C080E2A7FC8DE2B60190E013
S1133E2050D0891430F4B60180E390E04AD09A94DB
S1133E30F8CF8A94F301E80DF11D8081B60190E07A
S1133E4040D08110F6CF222009F44ECEB60180E294
S1133E5090E037D02A94F7CFF6018681978102C08B
S1133E608FEF9FEF2B960FB6F894DEBF0FBECDBF3A
S1133E70DF91CF911F910F91FF90EF90DF90CF9042
S1133E80BF90AF909F908F907F906F905F904F9076
S1133E903F902F900895FC010590615070400110EF
S1133EA0D8F7809590958E0F9F1F0895FC0161505F
S1133EB0704001900110D8F7809590958E0F9F1F48
S1133EC008950F931F93CF93DF93FB01238121FD6B
S1133ED003C08FEF9FEF2CC022FF16C0468157818D
S1133EE0248135814217530744F4A081B1819D0197
S1133EF02F5F3F4F318320838C93268137812F5F3F
S1133F003F4F3783268314C08B01EC01FB010084EF
S1133F10F185E02D1995892BE1F6D80116968D913E
S1133F209C911797019617969C938E931697CE01A2
S1133F30DF91CF911F910F910895FA01AA2728309C
S1133F4051F1203181F1E8946F936E7F6E5F7F4F62
S1133F508F4F9F4FAF4FB1E03ED0B4E03CD0670FDE
S1133F60781F891F9A1FA11D680F791F8A1F911D31
S1133F70A11D6A0F711D811D911DA11D20D009F481
S1133F8068943F912AE0269F11243019305D3193C3
S1133F90DEF6CF010895462F4770405D4193B3E0AC
S1133FA00FD0C9F7F6CF462F4F70405D4A3318F053
S1133FB0495D31FD4052419302D0A9F7EACFB4E004
S1133FC0A6959795879577956795BA95C9F70097BC
S1133FD06105710508959B01AC010A2E069457955D
S1133FE0479537952795BA95C9F7620F731F841FB4
S10D3FF0951FA01D0895F894FFCF5B
S1133FFA000013122000090000000300000000372B
S113400A1522150000C600CE00D600360144697395
S113401A74616E6365206D6561737572656D656E35
S113402A74207461736B200044697374616E6365F0
S113403A206D6561737572656D656E742062616366
S113404A6B207461736B20004D6561737572656DC5
S113405A656E742121202C2564200A0046726F6E35
S113406A7444697374616E63654D6561730042617A
S113407A636B44697374616E63654D656173004F64
S113408A62737461636C65446574656374006F621A
S113409A737461636C65446574656374696F6E46B1
S11340AA6F724261636B004F62737461636C652063
S11340BA646574656374696F6E207461736B004F11
S11340CA62737461636C6520746F6F20636C6F73C1
S11340DA6521202C2564200A004F62737461636C85
S11340EA652069732066617220617761792066723E
S11340FA6F6D207573202C2564200A0049444C45B1
S113410A00546D72205376630053797374656D207D
S113411A496E697469616C697A6174696F6E204366
S113412A6F6D706C6574650048414C5F4C45440082
S9030000FC
