S01300005254505F50726F6A6563742E73726563E5
S113000094C00000B3C00000B1C00000AFC0000045
S1130010ADC00000ABC00000A9C00000A7C0000034
S1130020A5C00000A3C00000A1C000009FC0000044
S11300303DC600009BC0000099C0000097C00000AE
S113004095C0000093C0000091C000008FC0000064
S11300508DC000008BC0000089C0000087C0000074
S113006085C000000C94AC180C94FE187FC00000EE
S11300707DC000007BC0000079C0000077C0000094
S113008075C0000073C0000071C000006FC00000A4
S11300900C9442190C94941969C0000067C00000C4
S11300A065C0000063C0000061C000005FC00000C4
S11300B05DC000005BC0000059C0000057C00000D4
S11300C055C0000053C0000051C000000C94D81962
S11300D00C942A1A4BC000000C946E1A0C94C01A8B
S11300E045C000002C152C152C1563156B158015B7
S11300F02C152C1563156B150E94260B8091DB10B3
S1130100823008F00ED50E94A915F6CFCF93DF9365
S11301101F92CDB7DEB7CE0101960E94AF1249817E
S11301200E94A2140E94F614F6CF11241FBECFEF32
S1130130D1E2DEBFCDBF00E00CBF12E0A0E0B2E030
S1130140EAE5F2E400E00BBF02C007900D92AA3C7E
S1130150B107D9F721E1AAECB2E001C01D92AF3991
S1130160B207E1F70E94E7150C942B2149CF8DE1EA
S113017092E09F938F930E943B1E61E070E080E0C9
S113018090E00E94A80E0F900F900E94770C6B01D4
S11301907C014FEF5FEFBA0180919311909194111C
S11301A00E9418098130E9F45DD1EC019093CD02ED
S11301B08093CC0200E020E030E0A90160E070E030
S11301C08091931190919411C3D6CC32D14048F4CC
S11301D041E050E060E070E08091911190919211C3
S11301E0ECD10E94770CDC01CB018C199D09AE097E
S11301F0BF098E339105A105B10568F40EE310E043
S113020020E030E068017901C81AD90AEA0AFB0A39
S1130210C701B60103C060E070E0CB010E948D0EFF
S1130220B4CF8EE392E09F938F930E943B1E63E0D2
S113023070E080E090E00E94A80E0F900F900E9462
S1130240770C6B017C014FEF5FEFBA0180918F1146
S113025090919011EDD78130F1F480E003D1EC015D
S11302609093CB028093CA0200E020E030E0A90121
S113027060E070E080918F119091901169D6CC323A
S1130280D14048F442E050E060E070E08091911188
S11302909091921192D10E94770CDC01CB018C19C0
S11302A09D09AE09BF098E339105A105B10568F416
S11302B00EE310E020E030E068017901C81AD90AA1
S11302C0EA0AFB0AC701B60103C060E070E0CB0193
S11302D00E948D0EB4CFEF92FF920F9381E0D7D698
S11302E0909394118093931181E0D1D690939011BF
S11302F080938F114FD19093921180939111E12C9F
S1130300F12C03E020E030E040EC50E06EE572E0D8
S113031087EB90E00E94E90B20E030E040EC50E0F5
S113032060E772E081E191E00E94E90B05E020E0E2
S113033030E040EC50E061E872E080ED91E00E9432
S1130340E90B20E030E040EC50E061E872E089EF36
S113035091E00E94E90B0F91FF90EF90089588239C
S113036011F030E001C036E028B181E090E002C035
S1130370880F991F3A95E2F7822B88B9089588234C
S113038011F030E001C036E028B181E090E002C015
S1130390880F991F3A95E2F78095822388B90895CA
S11303A04FEF5FEFBA01809193119091941140D770
S11303B0813079F4C091CC02D091CD0200E020E0EC
S11303C030E0A90160E070E0809193119091941164
S11303D0BFD5CC3281E0D80718F481E0C0DF02C079
S11303E081E0CDDF6EE370E080E090E00E948D0E4E
S11303F0D7CF4FEF5FEFBA0180918F119091901199
S113040017D7813079F4C091CA02D091CB0200E0B1
S113041020E030E0A90160E070E080918F119091BC
S1130420901196D5CC3281E0D80718F480E097DF9C
S113043002C080E0A4DF6EE370E080E090E00E9400
S11304408D0ED7CF87B1816087B988B1816088B9B3
S113045087B1806487B987B1846087B987B18260C6
S113046087B908950F931F93CF93DF93882311F0D7
S113047032E001C031E0882311F004E001C003E060
S113048025E32A95F1F7000028B181E090E002C04D
S1130490880F991F3A95E2F7922F982B98B925E384
S11304A02A95F1F7000098B18095892388B9E1E88D
S11304B0F0E0108184E08083109285001092840023
S11304C010C0609184007091850080E090E00E94EB
S11304D0ED1520E030E543EC55E40E942A1688230C
S11304E0E4F586B1C02F90E0002E02C09595879563
S11304F00A94E2F780FFE5CF109285001092840001
S113050010C0609184007091850080E090E00E94AA
S1130510ED1520E030E84BEB54E40E942A168823C2
S113052054F486B190E00C2E02C0959587950A94F8
S1130530E2F780FDE6CF209184003091850010938E
S11305408100A7E5B1E00E94F71C2DE730E040E010
S113055050E00E94CD1CC90102C080E090E0DF9110
S1130560CF911F910F910895E7E0F1E080818F60B2
S113057080830895E8E0F1E09081907F90839081FA
S11305808F70982B90830895E8E0F1E08081807F5C
S113059080830895CF93DF938FE090E00FD1EC0137
S11305A0009739F0FC011192119211921192CF012E
S11305B0EAD1CE01DF91CF9108954F925F926F926D
S11305C07F92AF92BF92CF92DF92EF92FF920F93FE
S11305D01F93CF93DF93EC016A017B018C01095FC8
S11305E01F4F0E94710CEB85FC8588819981AA813B
S11305F0BB81C82AD92AEA2AFB2AC882D982EA827C
S1130600FB82C12CD12C76013DC0A480B5808081B1
S11306109181A281B381AC01BD017727B2FD0EC0E7
S1130620488059806A807B80442255226622772242
S113063045284628472889F420E012C0488059807C
S11306406A807B8044225522662277224415550510
S11306506605770521F020E003C021E001C021E018
S1130660222371F0B0FF04C0C42AD52AE62AF72A4F
S1130670488159816A817B817260CF010E94311067
S1130680EA2DFB2DE017F10709F0BFCFC094D094F9
S1130690E094F09488819981AA81BB81C822D922EF
S11306A0EA22FB22C882D982EA82FB820E94B10D2F
S11306B0688179818A819B81DF91CF911F910F910C
S11306C0FF90EF90DF90CF90BF90AF907F906F90AE
S11306D05F904F900895EAEDF2E0AEEDB2E0B183A1
S11306E0A08313821282E6E8F0E1F093D902E0934A
S11306F0D802138212821182108288EA9DE0139636
S11307009C938E931297ED93FC939093D5028093D0
S1130710D4029093D7028093D60280E090E890931D
S1130720CF028093CE020895CF93DF93EC01AAED1C
S1130730B2E001C0DF01ED91FC911197EC17FD07C8
S1130740C8F312968D919C9113979D01280F391F20
S1130750C217D30749F42A813B81820F931F139652
S11307609C938E931297ED018A819B819E01280FA1
S1130770391FE217F307C1F42091D8023091D9024E
S1130780E217F30771F022813381820F931F9B8359
S11307908A83ED91FC91119780819181998388835B
S11307A005C03983288302C0F983E883CA17DB07AD
S11307B011F0CD93DC93DF91CF910895EF92FF92E6
S11307C00F931F93CF93DF938C010E94710C809140
S11307D0D8029091D902892B09F47DDF8091CE0251
S11307E09091CF0280239123892B09F076C00115C3
S11307F0110549F0C80104960817190718F000E01C
S113080010E001C08C010115110509F469C0809143
S1130810D6029091D7028017910708F464C0C09162
S1130820DA02D091DB02EAEDF2E002C0FE01EC0153
S11308308A819B818017910720F488819981009790
S1130840A9F78091D8029091D902C817D90709F461
S11308504DC0E080F18084E0E80EF11C888199812C
S1130860918380832A813B81201B310B2930310500
S113087048F0CE01800F911FFC01338322831B8338
S11308800A8352DF2A813B818091D6029091D7025C
S1130890821B930B9093D7028093D6024091D4028B
S11308A05091D5028417950720F49093D502809334
S11308B0D4028091CE029091CF02282B392B3B8316
S11308C02A83198218828091D2029091D3020196D0
S11308D09093D3028093D2020BC0E12CF12C08C078
S11308E0E12CF12C05C0E12CF12C02C0E12CF12CFF
S11308F00E94B10DE114F10411F40E94B515C70171
S1130900DF91CF911F910F91FF90EF9008950F9376
S11309101F93CF93DF93009789F1EC0124974A81C9
S11309205B812091CE023091CF02BA0162237323FE
S1130930672B21F168817981672B01F5209530952A
S1130940242335233B832A83CCD78A819B8120911E
S1130950D6023091D702820F931F9093D7028093CF
S1130960D602CE01E1DE8091D0029091D1020196AF
S11309709093D1028093D0020E94B10DDF91CF9168
S11309801F910F910895FC010396928381834FEF89
S11309905FEFBA01438354836583768390878783AB
S11309A09287818710820895FC0113861286089528
S11309B00F931F93CF93DF93EB01088119812A8151
S11309C03B810F3F4FEF14072407340721F4FC0148
S11309D0A185B28511C0DC01139601C0DF01149614
S11309E0ED91FC91159740815181628173810417C7
S11309F015072607370790F71496ED91FC91159784
S1130A00FD83EC83D783C683BF83AE831596DC93C3
S1130A10CE9314979B878A87FC0120812F5F2083C4
S1130A20DF91CF911F910F910895CF93DF93FC0134
S1130A30A285B385C481D581868197819F838E8366
S1130A40C681D781848195819D838C8311968D91F4
S1130A509C911297E817F90731F4868197811296D1
S1130A609C938E931197138612868C9181508C934C
S1130A708C91DF91CF910895A89590EC88E10FB601
S1130A80F894A895809360000FBE90936000089539
S1130A90FC01608331977083319710823197108203
S1130AA0319720E820833197108231971082319753
S1130AB01082779740833197508386970895DCDFBF
S1130AC0A0914911B0914A11CD91CDBFDD91DEBF06
S1130AD0FF91EF91DF91CF91BF91AF919F918F9152
S1130AE07F916F915F914F913F912F911F910F9142
S1130AF0FF90EF90DF90CF90BF90AF909F908F903A
S1130B007F906F905F904F903F902F901F900F9029
S1130B100CBE0F900BBE0F900FBE0F90089581E096
S1130B2008950F920FB6F8940F920BB60F920CB66D
S1130B300F921F9211242F923F924F925F926F92C5
S1130B407F928F929F92AF92BF92CF92DF92EF9259
S1130B50FF920F931F932F933F934F935F936F9342
S1130B607F938F939F93AF93BF93CF93DF93EF9331
S1130B70FF93A0914911B0914A110DB60D920EB692
S1130B800D920E94B70EA0914911B0914A11CD91D6
S1130B90CDBFDD91DEBFFF91EF91DF91CF91BF918A
S1130BA0AF919F918F917F916F915F914F913F9101
S1130BB02F911F910F91FF90EF90DF90CF90BF90F6
S1130BC0AF909F908F907F906F905F904F903F90E9
S1130BD02F901F900F900CBE0F900BBE0F900FBE66
S1130BE00F9008950F920FB6F8940F920BB60F92D0
S1130BF00CB60F921F9211242F923F924F925F9244
S1130C006F927F928F929F92AF92BF92CF92DF9218
S1130C10EF92FF920F931F932F933F934F935F9302
S1130C206F937F938F939F93AF93BF93CF93DF93F0
S1130C30EF93FF93A0914911B0914A110DB60D9213
S1130C400EB60D9213BE61D681110E94B70EA0910B
S1130C504911B0914A11CD91CDBFDD91DEBFFF9115
S1130C60EF91DF91CF91BF91AF919F918F917F9140
S1130C706F915F914F913F912F911F910F91FF9031
S1130C80EF90DF90CF90BF90AF909F908F907F9028
S1130C906F905F904F903F902F901F900F900CBEDD
S1130CA00F900BBE0F900FBE0F9008959BDF189509
S1130CB0DC0153962C915397222341F05A96ED91DF
S1130CC0FC915B9790818AE0891B089580E00895E8
S1130CD00FB6F8940F92FC01868D811102C081E059
S1130CE001C080E00F900FBE08950FB6F8940F92E4
S1130CF0FC01268D878D281302C081E001C080E0AD
S1130D000F900FBE08950F931F93CF93DF93EC01C1
S1130D10042F1E8D48A141110CC088819981892B13
S1130D2009F042C08C819D810E94DB111D821C82CE
S1130D3042C0011117C050E08A819B810E942B1E82
S1130D4028A18A819B81820F911D9B838A832C8198
S1130D503D818217930750F1888199819B838A830F
S1130D6080E029C050E08E819F810E942B1E88A1C3
S1130D7090E09195819591092E813F81280F391F2B
S1130D803F832E83488159812417350730F42C8101
S1130D903D81820F931F9F838E83023049F4112378
S1130DA049F0115080E007C080E005C080E003C036
S1130DB080E001C080E01F5F1E8FDF91CF911F9103
S1130DC00F910895FC0140A14423A9F050E026812D
S1130DD03781240F351F3783268384819581281713
S1130DE0390720F08081918197838683CB016681C6
S1130DF077810C942B1E08951F93CF93DF93EC01FE
S1130E000FB6F8940F921AA10BC08B89882351F066
S1130E10CE0143960E94820F81110E94421111500B
S1130E2011169CF38FEF8AA30F900FBE0FB6F894A0
S1130E300F9219A10BC08885882351F0CE01089622
S1130E400E94820F81110E944211115011169CF3CD
S1130E508FEF89A30F900FBEDF91CF911F9108955B
S1130E60CF93DF93EC010FB6F8940F92E881F981E8
S1130E708F8D28A190E030E0829FA001839F500DC8
S1130E80929F500D11244E0F5F1F5D834C831E8E65
S1130E90FB83EA830197289FA001299F500D389F67
S1130EA0500D1124CF01840F951F9F838E838FEFE4
S1130EB089A38AA361110BC08885882371F0CE01B0
S1130EC008960E94820F882341F02BDE06C0CE01D3
S1130ED0089659DDCE01439656DD0F900FBE81E092
S1130EE0DF91CF9108950F931F93F801611103C00F
S1130EF01183008302C051834083878F60A361E024
S1130F00CF01AEDF1F910F910895DF92EF92FF9210
S1130F100F931F93CF93DF93F82EE62ED42E869F44
S1130F20C001112483964ADCEC01009741F08C0146
S1130F302D2DAC014D5D5F4F6E2D8F2DD4DFCE0175
S1130F40DF91CF911F910F91FF90EF90DF90089563
S1130F50CF92DF92EF92FF920F931F93CF93DF9381
S1130F60CDB7DEB729970FB6F894DEBF0FBECDBF5D
S1130F707C016B012E833F834887598710E00FB6AD
S1130F80F8940F92F701968D878D981710F0023020
S1130F90A9F4402FB601C701B6DEF701938999235E
S1130FA039F0C7014396AED7882321F0BADD02C0D9
S1130FB08111B7DD0F900FBE81E048C08E819F8103
S1130FC0A885B985892B8A2B8B2B21F40F900FBE12
S1130FD080E03CC0111105C0CE0101960E94CB10E7
S1130FE011E00F900FBE7DD40FB6F8940F92F70165
S1130FF081A18F3F09F411A2F70182A18F3F09F467
S113100012A20F900FBEBE016A5F7F4FCE01019600
S11310100E94DC10811116C0C70167DE882371F0BD
S11310204E815F8168857985C701089612D7C7010B
S1131030E3DE97D58111A3CF74DDA1CFC701DCDE38
S113104090D59DCFC701D8DE8CD580E029960FB608
S1131050F894DEBF0FBECDBFDF91CF911F910F91EA
S1131060FF90EF90DF90CF9008950F93009769F071
S1131070FC011582148211821082168200E020E0A5
S113108030E0A90160E070E063DF0F910895CF9331
S1131090DF93482F60E081E038DFEC01E6DFCE012A
S11310A0DF91CF910895EF92FF920F931F93CF9307
S11310B0DF938A01FC01568D378D531710F02230CF
S11310C0F1F4422F7801EC011AA18E8DCE011BDEC2
S11310D01F3F79F48B898823A1F0CE01439612D760
S11310E0882389F0E114F10481F081E0F701808321
S11310F00DC0FF24F394F10EFAA281E007C080E052
S113110005C081E003C081E001C081E0DF91CF919F
S11311101F910F91FF90EF900895CF92DF92EF927D
S1131120FF920F931F93CF93DF93CDB7DEB7299729
S11311300FB6F894DEBF0FBECDBF8C016B012E83BA
S11311403F8348875987E12C0FB6F8940F92F80132
S1131150F68CFF2091F0B601C80134DEFA94F80150
S1131160F68E8085882329F0C8010896CBD6811194
S1131170D8DC0F900FBE81E04CC08E819F81A88582
S1131180B985892B8A2B8B2B21F40F900FBE80E01D
S113119040C0E11005C0CE010196FDD7EE24E394D2
S11311A00F900FBE9ED30FB6F8940F92F80181A151
S11311B08F3F09F411A2F80182A18F3F09F412A212
S11311C00F900FBEBE016A5F7F4FCE010196F4D728
S11311D0811116C0C8017CDD882371F04E815F81C6
S11311E068857985C801439634D6C80105DEB9D42B
S11311F08111AACF96DCA8CFC801FEDDB2D4A4CF5A
S1131200C801FADDAED4C80163DD882309F49CCF9C
S113121080E029960FB6F894DEBF0FBECDBFDF91F4
S1131220CF911F910F91FF90EF90DF90CF90089591
S1131230EF92FF920F931F93CF93DF93CDB7DEB757
S113124029970FB6F894DEBF0FBECDBF8C014E8335
S11312505F8368877987E12CF12C0FB6F8940F929D
S1131260F801868D8823C1F08150868F8081918119
S1131270892B29F40E949D12F80195838483F80137
S11312808085882329F0C80108963CD6811149DC61
S11312900F900FBE81E06BC08E819F81A885B985B8
S11312A0892B8A2B8B2B21F40F900FBE80E05FC01B
S11312B0F11005C0CE0101966ED7FF24F3940F9070
S11312C00FBE0FD30FB6F8940F92F80181A18F3F90
S11312D009F411A2F80182A18F3F09F412A20F9020
S11312E00FBEBE016A5F7F4FCE01019665D78111A3
S11312F024C0C801EDDC8823E1F0F80180819181EC
S1131300892B49F40FB6F8940F9284819581CCD738
S1131310E82E0F900FBE4E815F8168857985C801E4
S1131320439697D5C80168DD1CD4811196CFF9DBAB
S113133094CFC80161DD15D490CFC8015DDD11D40F
S1131340C801C6DC882309F488CFEE2079F00FB6F3
S1131350F8940F92C801ACDC682FF8018481958160
S11313600E9436120F900FBE80E001C080E02996E3
S11313700FB6F894DEBF0FBECDBFDF91CF911F91A2
S11313800F91FF90EF900895CF93DF93EC010FB688
S1131390F8940F9289A18F3F09F419A28AA18F3F73
S11313A009F41AA20F900FBE8E8D811103C0CE01D5
S11313B0439666D5CE0120DDDF91CF910895E0916B
S11313C0C310F091C410808181110CC08FEF9FEF86
S11313D0DC0180938D1090938E10A0938F10B093A6
S11313E090100895E091C310F091C4100780F08527
S11313F0E02D80819181A281B38180938D1090939F
S11314008E10A0938F10B09390100895CF93DF9314
S1131410EC018B8D9C8D7BDACE0179DADF91CF9153
S113142008954F925F926F927F928F929F92AF92A4
S1131430BF92CF92DF92EF92FF920F93CF93DF93FD
S11314402C015B014A013901E60165EA70E08B8DEC
S11314509C8D0E94341E8B8D9C8D21E0821A9108F4
S1131460880E991EA114B10489F415C0822F90E04E
S1131470F501E80FF91F3081DE01A80FB91F5D9651
S11314803C938081882329F02F5F01C020E0203124
S113149068F31CA601C01D8E0A3008F009E00A8F0B
S11314A00DA71EA6CE0102967FDACE010E967CDA37
S11314B0DB87CA878AE090E0A0E0B0E0801B910956
S11314C0A109B1098E879F87A88BB98BDF8BCE8B3F
S11314D018AA1FA684E0FE01F196DF011D928A95E9
S11314E0E9F71DAAA301B201C401D2DA9983888362
S11314F0E114F10419F0F701D183C083DF91CF9196
S11315000F91FF90EF90DF90CF90BF90AF909F909E
S11315108F907F906F905F904F900895CF93C0E02D
S113152008C02BE0C29FC001112485529F4E2BDAC4
S1131530CF5FCA30B0F380ED90E125DA85EC90E11D
S113154022DA86EB90E11FDA8BEA90E11CDA8FE96C
S113155090E119DA80ED90E19093C4108093C31068
S113156085EC90E19093C2108093C110CF910895BF
S1131570CF93DF93EC010FB6F8940F9280919E10F5
S11315808F5F80939E108091491190914A11892B0D
S113159051F4D0934A11C093491180919E10813027
S11315A091F4BCDF10C08091981081110CC0E091BF
S11315B04911F0914A11928D8A8D891720F0D093A8
S11315C04A11C0934911809191108F5F80939110BB
S11315D0EA8D809199108E1710F4E09399108BE0A6
S11315E08E9FF0011124E552FF4E0180F281E02D1F
S11315F0FF83EE832681378139872887A681B781C7
S11316009E012E5F3F4F15963C932E93149737837C
S11316102683EA8D8E9FF0011124E552FF4EFD874B
S1131620EC8780818F5F80830F900FBE809198102C
S1131630882349F0E0914911F0914A11928D8A8DE5
S1131640981708F46EDADF91CF910895CF93DF9362
S11316501AC00FB6F8940F92E091B210F091B31043
S1131660C085D185CE010296E0D980919E1081502B
S113167080939E108091AA1081508093AA100F909D
S11316800FBECE01C3DE8091AA108111E2CFDF919B
S1131690CF9108958F929F92AF92BF92CF92DF9293
S11316A0EF92FF92CF93DF936B017C01C42F809064
S11316B09A1090909B10A0909C10B0909D108091D7
S11316C0491190914A110296B0D98FEFC816D806E5
S11316D0E806F806B1F5CC23A1F1EFE9F0E1A18128
S11316E0B281C0914911D0914A11BF83AE83C09198
S11316F04911D0914A1116968D919C91179799870B
S113170088871696CD91DC91179780914911909115
S11317104A1102969D838C838091491190914A11BC
S1131720029617969C938E931697A0914911B091A7
S11317304A111D96FC93EE931C9780818F5F8083E2
S11317403DC0C80CD91CEA1CFB1CE0914911F09166
S11317504A11C282D382E482F582C814D904EA040D
S1131760FB0460F46091491170914A118091C11099
S11317709091C2106E5F7F4F1BD920C060914911B8
S113178070914A118091C3109091C4106E5F7F4F85
S11317900FD980918D1090918E10A0918F10B091DF
S11317A09010C816D906EA06FB0640F4C0928D10C4
S11317B0D0928E10E0928F10F0929010DF91CF9122
S11317C0FF90EF90DF90CF90BF90AF909F908F905D
S11317D008952F923F924F925F926F927F928F92D1
S11317E09F92AF92BF92CF92DF92EF92FF920F93AC
S11317F0CF93DF933C011B014A012901CA010E94D6
S1131800DE036C01892B69F086E390E00E94DE031D
S1131810EC01892B19F0DC8ECB8E05C0C60177D87C
S113182002C0C0E0D0E0209761F0A12CB12C6E0181
S11318309201A401B101C301F4DDCE0199DE81E07E
S113184001C08FEFDF91CF910F91FF90EF90DF9068
S1131850CF90BF90AF909F908F907F906F905F904C
S11318604F903F902F900895EF92FF920F930F2E79
S1131870FBE8EF2EF0E1FF2EF02D00E020E030E059
S113188040EC50E066E972E08CE790E0A2DF813042
S113189009F4EFD68130F9F4F8948FEF9FEFDC016F
S11318A080938D1090938E10A0938F10B09390100E
S11318B081E08093981010929A1010929B101092CD
S11318C09C1010929D10E0914911F0914A1187A546
S11318D00E94BA02F4D8809106020F91FF90EF9013
S11318E0089580918A108F5F80938A1008950FB6AF
S11318F0F8940F9260919A1070919B1080919C10B3
S113190090919D100F900FBE0895CF92DF92EF92A9
S1131910FF92CF93DF9380918A10811105C1C0900B
S11319209A10D0909B10E0909C10F0909D108FEF37
S1131930C81AD80AE80AF80AC0929A10D0929B10E2
S1131940E0929C10F0929D10C114D104E104F104C2
S1131950B1F48091C3109091C4102091C1103091C2
S1131960C2103093C4102093C3109093C21080937C
S1131970C110809192108F5F8093921020DD80912E
S11319808D1090918E10A0918F10B0919010C81668
S1131990D906EA06FB0620F480E0B2C081E001C06B
S11319A080E0E091C310F091C410908191110CC0BB
S11319B04FEF5FEFBA0140938D1050938E106093F8
S11319C08F10709390109CC0E091C310F091C410DC
S11319D00780F085E02D0084F185E02D428153815C
S11319E064817581C416D506E606F70648F440936B
S11319F08D1050938E1060938F107093901080C050
S1131A00A485B585C681D781208531853F832E8302
S1131A10C085D185268137813D832C8311964D91D4
S1131A205C9112979F012E5F3F4F4217530731F489
S1131A304085518512965C934E93119715861486B2
S1131A409C9191509C93A08DB18D109709F1C289FE
S1131A50D389448955895F834E83C489D589428952
S1131A6053895D834C8311966D917C911297AF01DC
S1131A70425F5F4F6417750731F4448955891296A4
S1131A805C934E931197118E108E9C9191509C9360
S1131A90A28D909199109A1710F4A09399109BE03D
S1131AA09A9FD0011124A552BF4E11960D90BC915E
S1131AB0A02DB783A68316964D915C9117975187F5
S1131AC040871696CD91DC9117973D832C8317960A
S1131AD03C932E931697A28D9A9FD0011124A55260
S1131AE0BF4EB587A4879C919F5F9C93228DE09104
S1131AF04911F0914A11928D291708F04FCF51CF17
S1131B00E0914911F0914A11E28D9BE0E99FF001C7
S1131B101124E552FF4E9081923008F081E09091BB
S1131B209310911116C016C0809194109091951045
S1131B30A0919610B09197100196A11DB11D8093AC
S1131B40941090939510A0939610B093971080E002
S1131B5001C081E0DF91CF91FF90EF90DF90CF90B3
S1131B600895CF92DF92EF92FF92CF93DF930FB657
S1131B70F8940F9280918A10815080938A108091FA
S1131B808A108111BEC080919E10811188C0BCC092
S1131B90E091BD10F091BE100084F185E02DA08D80
S1131BA0B18DC289D389848995899F838E83C489A1
S1131BB0D589828993899D838C8311962D913C913B
S1131BC01297CF010E962817390731F48489958925
S1131BD012969C938E931197118E108E8C91815036
S1131BE08C93A485B585C681D781808591859F8393
S1131BF08E83C085D185868197819D838C83119640
S1131C008D919C9112979F012E5F3F4F82179307EE
S1131C1031F48085918512969C938E931197158645
S1131C2014868C9181508C93A28D809199108A177F
S1131C3010F4A09399108BE08A9FD0011124A5522F
S1131C40BF4E11960D90BC91A02DB783A683169616
S1131C504D915C911797518740871696CD91DC91F1
S1131C6017973D832C8317963C932E931697A28D3A
S1131C708A9FD0011124A552BF4EB587A4878C91A9
S1131C808F5F8C93928DA0914911B0914A115A960D
S1131C908C91981730F081E08093931002C0E0E0BB
S1131CA0F0E08091B610811173CFEF2B09F087DB40
S1131CB0C0909410D0909510E0909610F0909710EA
S1131CC0C114D104E104F104A1F01FDE882319F04A
S1131CD081E08093931081E0C81AD108E108F108EB
S1131CE0A1F71092941010929510109296101092E1
S1131CF0971080919310882331F00E94910581E020
S1131D0003C080E001C080E00F900FBEDF91CF914F
S1131D10FF90EF90DF90CF900895CF92DF92EF92F3
S1131D20FF926B017C01672B682B692B39F0D9DD9D
S1131D3040E0C701B601AEDC14DF01C080E08111D0
S1131D4002C00E949105FF90EF90DF90CF9008951C
S1131D50009721F48091491190914A110FB6F8949B
S1131D600F92FC0170AB67A70F900FBE089580918E
S1131D708A10882321F081E08093931008951092B3
S1131D809310E0914911F0914A1187A50E94C40271
S1131D90E0914911F0914A1120813181E09149117A
S1131DA0F0914A11838D948D8217930758F06091B6
S1131DB0491170914A11635E7F4F8091491190914E
S1131DC04A11DFD68091991001C08150282F30E04C
S1131DD09BE0929FF001939FF00D1124E552FF4E7A
S1131DE09081992391F39BE0929FA001939F500DC2
S1131DF01124DF010180F281E02D0480F581E02DC2
S1131E001296FC93EE93119742525F4EE417F50736
S1131E1029F444815581FD01528341839BE0929FC3
S1131E20F001939FF00D1124E552FF4E0180F281E1
S1131E30E02D2085318530934A11209349118093F8
S1131E409910E0914911F0914A1187A50C94BA02B6
S1131E500895CF92DF92EF92FF926A017B01609125
S1131E60491170914A11625F7F4F0E94D80441E08A
S1131E70C701B6010FDCFF90EF90DF90CF9008957B
S1131E80CF93DF93FC01CB01BA01A181B281C09150
S1131E904911D0914A11BB8BAA8BC0914911D091A1
S1131EA04A1116964D915C9117975D8B4C8B169643
S1131EB0CD91DC9117974091491150914A11425F9D
S1131EC05F4F5D834C834091491150914A11425FA9
S1131ED05F4F17965C934E931697A0914911B0915A
S1131EE04A115996FC93EE93589730813F5F3083A3
S1131EF0222319F06FEF7FEFCB01422FCBDBDF9171
S1131F00CF910895CF93DF93DC011796ED91FC9167
S1131F1018970084F185E02DA08DB18DC289D389F5
S1131F20848995899F838E83C489D589828993897D
S1131F309D838C8311968D919C9112979F01225FB2
S1131F403F4F8217930731F48489958912969C93A5
S1131F508E931197118E108E8C9181508C93809159
S1131F608A10811152C0A485B585C681D781808528
S1131F7091859F838E83C085D185868197819D833A
S1131F808C8311968D919C9112979F012E5F3F4FE8
S1131F908217930731F48085918512969C938E93D2
S1131FA01197158614868C9181508C93A28D809103
S1131FB099108A1710F4A09399108BE08A9FD0018E
S1131FC01124A552BF4E11960D90BC91A02DB7833C
S1131FD0A68316964D915C91179751874087169664
S1131FE0CD91DC9117973D832C8317963C932E93C8
S1131FF01697A28D8A9FD0011124A552BF4EB58792
S1132000A4878C918F5F8C931CC046EB50E1DA015E
S11320101196CD91DC911297D38BC28B8E819F81C7
S1132020958B848B8E819F81DC0115963C932E9336
S113203014973F832E83518F408FDA018C918F5FE9
S11320408C93928DE0914911F0914A11828D8917F8
S113205020F481E08093931001C080E0DF91CF9160
S11320600895CF93DF93DC0170684D935D936D9376
S11320707C9313971896ED91FC9119971A964D91AC
S11320805C911B9714968D919C91159716962D91A2
S11320903C911797EC013F832E8316968D919C916A
S11320A0179714962D913C911597EC013D832C8341
S11320B0EA0189819A81A817B90731F416968D919E
S11320C09C9117979A8389831B961C921E921A9748
S11320D0DA018C9181508C93A485B585C681D78112
S11320E0808591859F838E83C085D18586819781E4
S11320F09D838C8311968D919C9112979F012E5FE5
S11321003F4F8217930731F48085918512969C93F3
S11321108E931197158614868C9181508C93A28D81
S1132120809199108A1710F4A09399108BE08A9FDC
S1132130D0011124A552BF4E11960D90BC91A02D33
S1132140B783A68316964D915C9117975187408764
S11321501696CD91DC9117973D832C8317963C936B
S11321602E931697A28D8A9FD0011124A552BF4E9B
S1132170B587A4878C918F5F8C93928DE0914911E0
S1132180F0914A11828D891718F481E0809393109D
S1132190DF91CF91089520919210FC01208340910A
S11321A09A1050919B1060919C1070919D104183E6
S11321B052836383748308958F929F92AF92BF92E8
S11321C0CF92DF92EF92FF920F931F93CF93DF93FF
S11321D0FB010FB6F8940F92C0909A10D0909B1008
S11321E0E0909C10F0909D10DC0111960D911D91D2
S11321F02D913C91149746015701801A910AA20A25
S1132200B30A40815181628173814F3FBFEF5B0705
S11322106B077B0739F1EC01B881A0919210BA17D2
S113222059F0C016D106E206F30630F0108211828E
S11322301282138281E017C084169506A606B7069B
S113224058F4481959096A097B0940835183628308
S11322507383A1DF80E007C010821182128213828F
S113226081E001C080E00F900FBEDF91CF911F91FC
S11322700F91FF90EF90DF90CF90BF90AF909F9021
S11322808F90089581E08093931008958091981021
S1132290882331F080918A10811104C082E008956E
S11322A081E0089580E008950F931F93CF93DF9307
S11322B0FC01892B09F477C0828DA0914911B0915A
S11322C04A115A969C91891708F063C04685578530
S11322D060897189772394F0A0914911B0914A11D2
S11322E05A969C914AE050E060E070E0491B510925
S11322F06109710946875787608B718B2485358501
S11323004BE0849FC001112485529F4E2817390742
S1132310B9F5EF018F010E5F1F4FC8010E9415052B
S1132320E0914911F0914A11E28DEA8F8091991060
S11323308E1710F4E09399108BE08E9FF001112416
S1132340E552FF4E0180F281E02DFF83EE8326816A
S1132350378139872887A681B78115961C930E93F8
S1132360149717830683EA8D8E9FF0011124E5529A
S1132370FF4EFD87EC8780818F5F808381E016C0EC
S1132380A0914911B0914A115A968C91828F81E0A3
S11323900DC095A5E0914911F0914A11828D9817CD
S11323A020F080E003C080E001C081E0DF91CF91A4
S11323B01F910F9108950F931F93CF93DF93FC0107
S11323C0892B09F449C086A5815086A7228D95A53D
S11323D0291709F443C0811143C0EF018F010E5F37
S11323E01F4FC8010E941505EDA5EA8F8AE090E011
S11323F0A0E0B0E08E1B9109A109B1098E879F87E7
S1132400A88BB98B809199108E1710F4E0939910D2
S11324108BE08E9FF0011124E552FF4E0180F28182
S1132420E02DFF83EE832681378139872887A681B3
S1132430B78115961C930E93149717830683EA8D20
S11324408E9FF0011124E552FF4EFD87EC878081B9
S11324508F5F808381E005C080E003C080E001C01D
S113246080E0DF91CF911F910F9108950F931F93F7
S1132470CF93DF93FC01892B09F45AC085A58617F5
S113248008F4862F928D891709F452C026A52130AD
S113249009F04EC0828F46855785608971897723FC
S11324A064F04AE050E060E070E0481B51096109C3
S11324B0710946875787608B718B248535854BE07E
S11324C0949FC001112485529F4E2817390781F526
S11324D0EF018F010E5F1F4FC8010E941505EA8DA1
S11324E0809199108E1710F4E09399108BE08E9FD1
S11324F0F0011124E552FF4E0180F281E02DFF83AB
S1132500EE832681378139872887A681B78115967E
S11325101C930E93149717830683EA8D8E9FF00104
S11325201124E552FF4EFD87EC8780818F5F808305
S1132530DF91CF911F910F9108958091491190914E
S11325404A11892B39F0E0914911F0914A1186A57D
S11325508F5F86A78091491190914A110895DC01FB
S1132560E0915511F0915611808191E0811190E034
S11325709C93911108C00780F085E02D60817181E2
S113258082819381089560E070E0CB010895CF9239
S1132590DF92EF92FF920F931F93FC0142835383C8
S11325A06483758393878287041715072607370783
S11325B0C0F00C191D092E093F0986859785A0894D
S11325C0B189081719072A073B0700F5BF016E5F99
S11325D07F4F80915311909154110E94D80480E050
S11325E018C00C151D052E053F0528F44C155D0576
S11325F06E057F0568F4BF016E5F7F4F80915511B2
S1132600909156110E94D80480E003C081E001C07B
S113261081E01F910F91FF90EF90DF90CF9008958C
S11326200FB6F8940F928091511190915211892B09
S1132630E9F482E691E10E94C30487E591E10E94F6
S1132640C30482E691E1909356118093551187E576
S113265091E1909354118093531140E067E08AE034
S11326600E94850790935211809351110F900FBED1
S11326700895EF92FF920F93D3DF809151119091BF
S11326805211892B89F00F2EFFE4EF2EF1E1FF2E7A
S1132690F02D03E020E030E040EC50E06BE972E024
S11326A086E890E096D801C080E00F91FF90EF900B
S11326B008958F929F92AF92BF92CF92DF92EF9242
S11326C0FF920F931F93CF93DF93CDB7DEB7279776
S11326D00FB6F894DEBF0FBECDBFE0915111F0915B
S11326E05211309781F169832A833B834C835D8344
S11326F09F838E836630F4F4C9DD823069F400E090
S1132700A7019601BE016F5F7F4F80915111909197
S113271052110E94A80718C000E020E030E0A9018F
S1132720BE016F5F7F4F80915111909152110E94B1
S1132730A8070AC020E0A801BE016F5F7F4FCF0148
S11327400E94530801C080E027960FB6F894DEBFBC
S11327500FBECDBFDF91CF911F910F91FF90EF90EE
S1132760DF90CF90BF90AF909F908F9008958F92FD
S11327709F92AF92BF92CF92DF92EF92FF920F930C
S11327801F93CF93DF933BC00780F085E02D8080BB
S11327909180A280B380C085D1858E010E5F1F4FCA
S11327A0C8010E941505EC89FD89CE0119958E8911
S11327B082FF25C08E859F85A889B989880D991DBA
S11327C0AA1DBB1D88169906AA06BB0670F48A8347
S11327D09B83AC83BD83DB87CA87B8018091551185
S11327E0909156110E94D8040AC0C12CD12C7601B4
S11327F000E010E0A501940160E0CE015ADFE09111
S11328005511F091561180818111BECF80915311E1
S1132810909154119093561180935511F093541143
S1132820E0935311DF91CF911F910F91FF90EF909F
S1132830DF90CF90BF90AF909F908F900895CF92EC
S1132840DF92EF92FF92CF93DF93EC0150D86B01AC
S11328507C0180914B1190914C11A0914D11B0913C
S11328604E11C816D906EA06FB0620F480DF81E083
S1132870888301C01882C0924B11D0924C11E0920F
S11328804D11F0924E11C701B601DF91CF91FF9027
S1132890EF90DF90CF9008954F925F926F927F9266
S11328A08F929F92AF92BF92CF92DF92EF92FF925C
S11328B00F931F93CF93DF934B015C0129013A01DE
S11328C0E0915511F09156110780F085E02DC085F7
S11328D0D185CE0102960E9415058E8982FF1BC008
S11328E04E855F8568897989480D591D6A1D7B1D50
S11328F07501640193018201CE0149DE882369F0E8
S1132900C12CD12C760100E010E0A501940160E017
S1132910CE01CFDE02C08E7F8E8BEC89FD89CE0185
S11329201995DF91CF911F910F91FF90EF90DF9058
S1132930CF90BF90AF909F908F907F906F905F905B
S11329404F9008958F929F92AF92BF92CF92DF9251
S1132950EF92FF921F93CF93DF931F92CDB7DEB711
S11329606B017C01142F0E94710CCE01019667DF6C
S11329704B015C01898181112BC011110CC08C1495
S11329809D04AE04BF0438F0ECD8A5019401C7013E
S1132990B60182DF1EC0112341F0E0915311F09182
S11329A05411808111E0811110E0B701A60148198A
S11329B059096A097B09212F809151119091521173
S11329C00E94C409CED8811104C00E94910501C09F
S11329D0C8D80F90DF91CF911F91FF90EF90DF90B7
S11329E0CF90BF90AF909F908F900895AF92BF9279
S11329F0CF92DF92EF92FF920F931F93CF93DF93C7
S1132A00CDB7DEB728970FB6F894DEBF0FBECDBFA3
S1132A1081C0898188230CF47DC0AE80BF80D5013C
S1132A201C968D919C911D97892B21F0C5010296CE
S1132A300E941505CE01089602DF8B019C01E981F5
S1132A400E2E000CFF0BEA30F10508F063C0882756
S1132A50EE58FF4F8F4FC3C7F50186898160868B7F
S1132A60CA80DB80EC80FD8046855785608971894A
S1132A704C0D5D1D6E1D7F1DC50189DD882309F484
S1132A8049C0D5015496ED91FC915597C50119950E
S1132A90F501868982FF3EC04A815B816C817D811C
S1132AA086859785A089B1899A01AB01280F391FC2
S1132AB04A1F5B1FC12CD12C760100E010E060E0BE
S1132AC0C501F7DD27C0D50156968C9156978E7FA8
S1132AD056968C931FC0F50186898160868B4A8146
S1132AE05B816C817D8146875787608B718B400F3A
S1132AF0511F621F731F68017901C50148DD0AC0B7
S1132B00F501868981FD04C0C5010E94870402C0C5
S1132B108E7F868B20E030E0A901BE016F5F7F4F7E
S1132B2080915111909152110E948D08811171CFA1
S1132B3028960FB6F894DEBF0FBECDBFDF91CF91BC
S1132B401F910F91FF90EF90DF90CF90BF90AF90C7
S1132B500895089584B1806884B985B1806885B981
S1132B60089583B1806883B90895F4DF2FEF80E777
S1132B7092E0215080409040E1F700C00000F1DF76
S1132B80F5CFE8DF2FEF87EA91E6215080409040AF
S1132B90E1F700C00000E5DFF5CF0E94B40280E059
S1132BA09FD085E090E0A3D187B1816087B988B1D7
S1132BB08E7F88B987B1806487B988B18F7B88B9E3
S1132BC00E94220283EA92E00C944E1E0895E5DFEF
S1132BD00E946B010E94340CFFCFE89409C097FB5C
S1132BE03EF490958095709561957F4F8F4F9F4FE0
S1132BF09923A9F0F92F96E9BB279395F695879524
S1132C0077956795B795F111F8CFFAF4BB0F11F4E6
S1132C1060FF1BC06F5F7F4F8F4F9F4F16C088238D
S1132C2011F096E911C0772321F09EE8872F762FC3
S1132C3005C0662371F096E8862F70E060E02AF004
S1132C409A95660F771F881FDAF7880F96958795F0
S1132C5097F9089503D008F48FEF0895990F0008A9
S1132C60550FAA0BE0E8FEEF16161706E807F9075A
S1132C70C0F012161306E407F50798F0621B730BF5
S1132C80840B950B39F40A2661F0232B242B252B76
S1132C9021F408950A2609F4A140A6958FEF811D19
S1132CA0811D0895CF93DF931F92CDB7DEB7BE0188
S1132CB06F5F7F4F80916D1190916E112DD28111B4
S1132CC0F6CF898190E00F90DF91CF910895682F1E
S1132CD080916D1190916E11F4D180E090E008958F
S1132CE08F929F92AF92CF92EF920F93812C912C5F
S1132CF06894AA24A7F86894CC24C7F8E12C00E0CF
S1132D0023E040E051EE60E070E03FD190936E111B
S1132D1080936D11E9E9F1E187E092E0918380838A
S1132D20938382830F91EF90CF90AF909F908F9079
S1132D30089590E0FC01EE0FFF1FE80FF91FEE0F5E
S1132D40FF1FE159FE4E238121111FC09C01220F58
S1132D50331FF901E80FF91FEE0FFF1FE159FE4E73
S1132D60A081B1814C91F901E80FF91FEE0FFF1F0B
S1132D70E159FE4E81E090E0028002C0880F991F65
S1132D800A94E2F7842B8C930895FC01EE0FFF1F45
S1132D90DF01A80FB91FAA0FBB1FA159BE4E0D908A
S1132DA0BC91A02D2C91E80FF91FEE0FFF1FE159E4
S1132DB0FE4E81E090E0028002C0880F991F0A94C1
S1132DC0E2F7809582238C93089590E0FC01EE0F46
S1132DD0FF1FE80FF91FEE0FFF1FE159FE4E23817D
S1132DE0211120C09C01220F331FF901E80FF91FA4
S1132DF0EE0FFF1FE159FE4EA081B1814C91F90104
S1132E00E80FF91FEE0FFF1FE159FE4E81E090E03D
S1132E10028002C0880F991F0A94E2F780958423E8
S1132E208C930895FC01EE0FFF1FDF01A80FB91F5B
S1132E30AA0FBB1FA159BE4E0D90BC91A02D2C9181
S1132E40E80FF91FEE0FFF1FE159FE4E81E090E0FD
S1132E50028002C0880F991F0A94E2F7822B8C9398
S1132E600895CC24C394D12C6894BB24B2F8CFE643
S1132E70D1E110E08C81813081F018F1823061F56C
S1132E80E881F9812081C6010A8002C0880F991F58
S1132E900A94E2F7822780831FC08D818F5F86307A
S1132EA010F48D8319C01D82E881F9812081C60147
S1132EB00A8002C0880F991F0A94E2F78227808350
S1132EC00BC00D81002329F0812F7FDF01500D837A
S1132ED003C0BC82812F2DDF1F5F2696143051F66C
S1132EE06CE070E080E090E00E948D0EC0CFEF9225
S1132EF0FF920F931F93CF93DF93082F80E487B93A
S1132F00CFE6D1E10F2EF8E2EF2EF12CF02DF9826D
S1132F10E88286E08A831B8214E01C8380E009DF58
S1132F2080E887B9FF82EE8287E0888719861A874E
S1132F3081E0FFDE80E283BB84E390E09D878C87A1
S1132F4085E08E871F86188B82E0F3DE80E1809314
S1132F50010182E091E09B8B8A8B1C8B1D8A1E8B66
S1132F6083E0E7DEE12CF12C20E030E040EC50E09F
S1132F7062EC72E081E397E10E94E90BDF91CF916B
S1132F801F910F91FF90EF9008952F923F924F92CF
S1132F905F926F927F928F929F92AF92CF92EF92B5
S1132FA0FF920F931F93CF93DF93CDB7DEB7F82E25
S1132FB02A013B0188E090E029D58C018F2D90E017
S1132FC0FC01EE0FFF1FE957FE4E1183008301152C
S1132FD0110509F464C0880F991FFC01EB5EFD4FD5
S1132FE080819181D8018D939C938C2D90E0880FE2
S1132FF0991F880F991F0AD51C0186E090E006D519
S11330007C014C2DB10100D3F801F582E4828A2DB4
S113301090E0880F991F880F991FF8D41C0186E04F
S113302090E0F4D47C014A2DB101EED2D80113967C
S1133030FC92EE92129717969C928E921697FFB678
S1133040F894ED91FC91119736978081826080838A
S11330508D909C90C301B201C0DD20E030E040E0DF
S113306051E438D49B01AC0160E074E284E79BE452
S11330704CD320E030E040E85FE3E2D2AED3F40189
S113308032976083D801ED91FC911197359788E9C7
S11330908083ED91FC91349786E08083FFBEC80164
S11330A0DF91CF911F910F91FF90EF90CF90AF9050
S11330B09F908F907F906F905F904F903F902F9054
S11330C00895CF93DF93DC01892B01F11296ED91E2
S11330D0FC911397938182812581981B922384818B
S11330E09817B1F0838126952823C081D181C20F1E
S11330F0D11D68838F5F958189238383ED91FC9132
S1133100359780818062808380E003C081E001C0C4
S113311082E0DF91CF9108950097D1F0DC011496FD
S1133120ED91FC91159793818281981799F0928182
S1133130858186958923A081B181A80FB11D8C91C9
S1133140DB018C939F5F85819823928380E00895AF
S113315081E0089583E008951F920F920FB60F92B5
S113316011240BB60F922F933F934F935F936F935A
S11331707F938F939F93AF93BF93CF93DF93EF93FB
S1133180FF93A0918711B0918811109711F160916C
S1133190C6001496ED91FC91159793818281258147
S11331A0981B92238481981761F0838126952823A4
S11331B0C081D181C20FD11D68838F5F958189231E
S11331C083831696ED91FC911797309711F0CD01FA
S11331D01995FF91EF91DF91CF91BF91AF919F919D
S11331E08F917F916F915F914F913F912F910F90AC
S11331F00BBE0F900FBE0F901F9018951F920F9249
S11332000FB60F9211240BB60F922F938F939F93A7
S1133210AF93BF93EF93FF93E0918711F0918811DF
S11332203097B9F00280F381E02D93818281981761
S1133230B1F092818581282F26952923A081B1811F
S1133240A20FB11D2C919F5F892382832093C60016
S11332500BC0E1ECF0E080818F7D808305C0E1EC60
S1133260F0E080818F7D8083FF91EF91BF91AF91DA
S11332709F918F912F910F900BBE0F900FBE0F90C7
S11332801F9018951F920F920FB60F9211240BB630
S11332900F922F933F934F935F936F937F938F93EB
S11332A09F93AF93BF93CF93DF93EF93FF93A0913B
S11332B08911B0918A11109711F16091CE00149682
S11332C0ED91FC911597938182812581981B92231E
S11332D08481981761F0838126952823C081D18148
S11332E0C20FD11D68838F5F9581892383831696CE
S11332F0ED91FC911797309711F0CD011995FF913D
S1133300EF91DF91CF91BF91AF919F918F917F9179
S11333106F915F914F913F912F910F900BBE0F9042
S11333200FBE0F901F9018951F920F920FB60F9219
S113333011240BB60F922F938F939F93AF93BF9348
S1133340EF93FF93E0918911F0918A113097B9F0CE
S11333500280F381E02D938182819817B1F09281EC
S11333608581282F26952923A081B181A20FB11D23
S11333702C919F5F892382832093CE000BC0E9ECBC
S1133380F0E080818F7D808305C0E9ECF0E08081EE
S11333908F7D8083FF91EF91BF91AF919F918F912A
S11333A02F910F900BBE0F900FBE0F901F9018958A
S11333B01F920F920FB60F9211240BB60F922F93F8
S11333C03F934F935F936F937F938F939F93AF93A9
S11333D0BF93CF93DF93EF93FF93A0918B11B091A1
S11333E08C11109711F16091D6001496ED91FC9117
S11333F01597938182812581981B92238481981744
S113340061F0838126952823C081D181C20FD11D0B
S113341068838F5F9581892383831696ED91FC9150
S11334201797309711F0CD011995FF91EF91DF9126
S1133430CF91BF91AF919F918F917F916F915F9148
S11334404F913F912F910F900BBE0F900FBE0F9095
S11334501F9018951F920F920FB60F9211240BB65E
S11334600F922F938F939F93AF93BF93EF93FF93F9
S1133470E0918B11F0918C113097B9F00280F381B7
S1133480E02D938182819817B1F092818581282F54
S113349026952923A081B181A20FB11D2C919F5F94
S11334A0892382832093D6000BC0E1EDF0E0808174
S11334B08F7D808305C0E1EDF0E080818F7D808386
S11334C0FF91EF91BF91AF919F918F912F910F90A9
S11334D00BBE0F900FBE0F901F9018951F920F9266
S11334E00FB60F9211240BB60F922F933F934F9365
S11334F05F936F937F938F939F93AF93BF93CF9378
S1133500DF93EF93FF93A0918D11B0918E111097DB
S113351011F1609136011496ED91FC911597938108
S113352082812581981B92238481981761F083817D
S113353026952823C081D181C20FD11D68838F5F56
S11335409581892383831696ED91FC911797309783
S113355011F0CD011995FF91EF91DF91CF91BF91BA
S1133560AF919F918F917F916F915F914F913F9117
S11335702F910F900BBE0F900FBE0F901F901895B8
S11335801F920F920FB60F9211240BB60F922F9326
S11335908F939F93AF93BF93EF93FF93E0918D111C
S11335A0F0918E113097B9F00280F381E02D938170
S11335B082819817B1F092818581282F269529233D
S11335C0A081B181A20FB11D2C919F5F89238283B9
S11335D0209336010BC0E1E3F1E080818F7D80838D
S11335E005C0E1E3F1E080818F7D8083FF91EF915D
S11335F0BF91AF919F918F912F910F900BBE0F9020
S11336000FBE0F901F901895FC01411101C01FD3EC
S1133610842F90E09C012150310982239323892B2C
S113362009F015D3413808F012D31282138244836F
S1133630440F415045837183608380E090E0089596
S11336405058BB27AA270ED00BC1FCD030F001D1B3
S113365020F031F49F3F11F41EF4F1C00EF4E09514
S1133660E7FBE7C0E92F0DD180F3BA1762077307B0
S11336708407950718F071F49EF525C10EF4E095C2
S11336800B2EBA2FA02D0B01B90190010C01CA0118
S1133690A0011124FF27591B99F0593F50F4503EC3
S11336A068F11A16F040A22F232F342F4427585FB5
S11336B0F3CF469537952795A795F0405395C9F7CD
S11336C07EF41F16BA0B620B730B840BBAF0915085
S11336D0A1F0FF0FBB1F661F771F881FC2F70EC024
S11336E0BA0F621F731F841F48F4879577956795F7
S11336F0B795F7959E3F08F0B3CF9395880F08F0E0
S11337009927EE0F9795879508950CD0A9C0A1D05D
S113371040F098D030F021F45F3F19F08AC0511185
S1133720D3C08DC0AED098F39923C9F35523B1F318
S1133730951B550BBB27AA2762177307840738F01C
S11337409F5F5F4F220F331F441FAA1FA9F333D07B
S11337500E2E3AF0E0E830D091505040E695001C2F
S1133760CAF729D0FE2F27D0660F771F881FBB1FEB
S1133770261737074807AB07B0E809F0BB0B802DC5
S1133780BF01FF2793585F4F2AF09E3F510568F011
S113379050C09AC05F3FECF3983EDCF38695779572
S11337A06795B795F7959F5FC9F7880F911D969513
S11337B0879597F90895E1E0660F771F881FBB1F6F
S11337C0621773078407BA0720F0621B730B840B1C
S11337D0BA0BEE1F88F7E09508955BD088F09F57E9
S11337E090F0B92F9927B751A0F0D1F0660F771F49
S11337F0881F991F1AF0BA95C9F712C0B13081F029
S113380062D0B1E008955FC0672F782F8827B85F32
S113381039F0B93FCCF3869577956795B395D9F789
S11338203EF490958095709561957F4F8F4F9F4F93
S1133830089597F99F6780E870E060E008959FEF2E
S113384080EC089500240A94161617061806090633
S1133850089500240A941216130614060506089502
S1133860092E0394000C11F4882352F0BB0F40F48A
S1133870BF2B11F460FF04C06F5F7F4F8F4F9F4FCA
S1133880089557FD9058440F551F59F05F3F71F04C
S11338904795880F97FB991F61F09F3F79F08795B3
S11338A00895121613061406551FF2CF4695F1DF3C
S11338B008C0161617061806991FF1CF86957105CC
S11338C0610508940895E894BB2766277727CB0100
S11338D097F908950BD0C4CFB5DF28F0BADF18F0FC
S11338E0952309F0A6CFABCF1124EECFCADFA0F306
S11338F0959FD1F3950F50E0551F629FF001729F81
S1133900BB27F00DB11D639FAA27F00DB11DAA1F9F
S1133910649F6627B00DA11D661F829F2227B00DEC
S1133920A11D621F739FB00DA11D621F839FA00D77
S1133930611D221F749F3327A00D611D231F849FC7
S1133940600D211D822F762F6A2F11249F5750401E
S11339508AF0E1F088234AF0EE0FFF1FBB1F661FB9
S1133960771F881F91505040A9F79E3F510570F072
S113397060CFAACF5F3FECF3983EDCF38695779552
S11339806795B795F795E7959F5FC1F7FE2B880F6D
S1133990911D9695879597F90895A1E21A2EAA1B71
S11339A0BB1BFD010DC0AA1FBB1FEE1FFF1FA217EB
S11339B0B307E407F50720F0A21BB30BE40BF50BE8
S11339C0661F771F881F991F1A9469F76095709571
S11339D0809590959B01AC01BD01CF010895EE0F38
S11339E0FF1F881F8BBF0790F691E02D1994A29FAB
S11339F0B001B39FC001A39F700D811D1124911DBF
S1133A00B29F700D811D1124911D08950F931F9372
S1133A10CF93DF938230910510F482E090E0E0913F
S1133A209711F091981120E030E0A0E0B0E03097D9
S1133A3019F1408151810281138148175907C8F057
S1133A408417950769F4109731F012960C93129726
S1133A5013961C9327C0009397111093981122C0BA
S1133A602115310519F04217530718F49A01BD01C5
S1133A70EF01DF01F801DBCF21153105F9F0281B37
S1133A80390B2430310580F48A819B8161157105DD
S1133A9021F0FB019383828304C090939811809357
S1133AA09711FE01329644C0FE01E20FF31F819389
S1133AB0919322503109398328833AC0209195117A
S1133AC030919611232B41F420910202309103028C
S1133AD030939611209395112091000230910102A8
S1133AE02115310541F42DB73EB7409104025091A0
S1133AF00502241B350BE0919511F0919611E21704
S1133B00F307A0F42E1B3F0B2817390778F0AC01FC
S1133B104E5F5F4F2417350748F04E0F5F1F5093D9
S1133B209611409395118193919302C0E0E0F0E0E7
S1133B30CF01DF91CF911F910F910895CF93DF9320
S1133B40009709F481C0FC01329713821282A0917C
S1133B509711B0919811109781F420813181820FCF
S1133B60931F20919511309196112817390751F51B
S1133B70F0939611E093951167C0ED0120E030E0D9
S1133B80CE17DF0740F44A815B819E014115510540
S1133B90F1F0EA01F5CFD383C28340815181840FD0
S1133BA0951FC817D90759F488819981840F951FE7
S1133BB00296918380838A819B81938382832115DA
S1133BC0310529F4F0939811E09397113DC0E90170
S1133BD0FB83EA8349915991C40FD51FEC17FD0764
S1133BE061F480819181840F951F0296E901998384
S1133BF08883828193819B838A83E0E0F0E012963C
S1133C008D919C911397009719F0FD01DC01F7CF7A
S1133C108D919C9111979D012E5F3F4F820F931FB1
S1133C2020919511309196112817390769F430972E
S1133C3029F4109298111092971102C013821282E3
S1133C40B0939611A0939511DF91CF91089581E0DF
S1133C5090E0F89400C3FB01DC0102C001900D92D6
S1133C6041505040D8F70895DC0101C06D93415094
S1133C705040E0F70895CF93DF93CDB7DEB7AE01A0
S1133C804A5F5F4FFA0161917191AF0180919B117D
S1133C9090919C1133D0DF91CF9108950F931F938E
S1133CA0CF93DF93E0919B11F0919C11238121FF2D
S1133CB01BC08C01D0E0C0E0F80181918F016091BC
S1133CC09B1170919C11DB011896ED91FC91199751
S1133CD0882331F01995892B79F3DFEFCFEFECCFFF
S1133CE08AE01995892B19F08FEF9FEF02C08D2F71
S1133CF09C2FDF91CF911F910F9108952F923F92A6
S1133D004F925F926F927F928F929F92AF92BF92E7
S1133D10CF92DF92EF92FF920F931F93CF93DF9393
S1133D20CDB7DEB72B970FB6F894DEBF0FBECDBF6D
S1133D306C017B018A01FC0117821682838181FF59
S1133D40BFC1CE0101963C01F6019381F70193FDB9
S1133D50859193FF81917F01882309F4ADC1853258
S1133D6039F493FD859193FF81917F01853221F48C
S1133D70B60190E0D6D1E8CF912C212C312CFFE173
S1133D80F315D8F08B3279F038F4803279F083323D
S1133D90A1F4232D20611DC08D3261F0803369F4BC
S1133DA0232D216016C0832D8260382EE32DE4601C
S1133DB03E2E2AC0F32DF8601DC037FC2DC020ED27
S1133DC0280F2A3040F08E32B9F436FC75C1232D09
S1133DD02064322E19C036FE06C08AE0989E200D5B
S1133DE01124922E11C0EAE02E9E200D1124222EC1
S1133DF0F32DF0623F2E08C08C3621F4832D8068A9
S1133E00382E02C0883641F4F70193FD859193FF63
S1133E1081917F018111B3CF982F9F7D9554933069
S1133E2028F40C5F1F4F9FE399830DC0833631F054
S1133E30833771F0833509F055C020C0F8018081C3
S1133E4089830E5F1F4F88248394912C530112C0E1
S1133E502801F2E04F0E511CF801A080B18036FE1B
S1133E6003C0692D70E002C06FEF7FEFC5014ED132
S1133E704C018201F32DFF773F2E15C0280122E06B
S1133E80420E511CF801A080B18036FE03C0692D9A
S1133E9070E002C06FEF7FEFC5012DD14C01F32D0F
S1133EA0F0683F2E820133FC19C0822D90E0881601
S1133EB09906A0F4B60180E290E033D12A94F5CFBC
S1133EC0F50137FC859137FE81915F01B60190E0E1
S1133ED028D121102A9421E0821A91088114910496
S1133EE079F7E1C0843611F0893639F5F80137FEE7
S1133EF007C060817181828193810C5F1F4F08C06C
S1133F0060817181072E000C880B990B0E5F1F4F87
S1133F10F32DFF763F2E97FF09C0909580957095FD
S1133F2061957F4F8F4F9F4FF0683F2E2AE030E01E
S1133F30A30133D1882E861844C0853731F4232D4C
S1133F402F7EB22E2AE030E025C0932D997FB92E22
S1133F508F36C1F018F4883579F0AEC0803719F087
S1133F60883721F0A9C0E92FE061BE2EB4FE0DC050
S1133F70FB2DF460BF2E09C034FE0AC0292F266031
S1133F80B22E06C028E030E005C020E130E002C0D7
S1133F9020E132E0F801B7FE07C0608171818281BF
S1133FA093810C5F1F4F06C06081718180E090E0B7
S1133FB00E5F1F4FA301F1D0882E8618FB2DFF77CB
S1133FC03F2E36FE0DC0232D2E7FA22E891458F4C9
S1133FD034FE0BC032FC09C0832D8E7EA82E05C092
S1133FE0B82CA32C03C0B82C01C0B92CA4FE0FC05C
S1133FF0FE01E80DF11D8081803321F49A2D997E14
S1134000A92E09C0A2FE06C0B394B39404C08A2D9D
S1134010867809F0B394A3FC10C0A0FE06C0B214C5
S113402080F4280C922C9B180DC0B21458F4B601DD
S113403080E290E076D0B394F8CFB21418F42B1841
S113404002C0982C212CA4FE0FC0B60180E390E09E
S113405068D0A2FE16C0A1FC03C088E790E002C0AD
S113406088E590E0B6010CC08A2D867851F0A1FE57
S113407002C08BE201C080E2A7FC8DE2B60190E0B1
S113408050D0891430F4B60180E390E04AD09A9479
S1134090F8CF8A94F301E80DF11D8081B60190E018
S11340A040D08110F6CF222009F44ECEB60180E232
S11340B090E037D02A94F7CFF6018681978102C029
S11340C08FEF9FEF2B960FB6F894DEBF0FBECDBFD8
S11340D0DF91CF911F910F91FF90EF90DF90CF90E0
S11340E0BF90AF909F908F907F906F905F904F9014
S11340F03F902F900895FC0105906150704001108D
S1134100D8F7809590958E0F9F1F0895FC016150FC
S1134110704001900110D8F7809590958E0F9F1FE5
S113412008950F931F93CF93DF93FB01238121FD08
S113413003C08FEF9FEF2CC022FF16C0468157812A
S1134140248135814217530744F4A081B1819D0134
S11341502F5F3F4F318320838C93268137812F5FDC
S11341603F4F3783268314C08B01EC01FB0100848D
S1134170F185E02D1995892BE1F6D80116968D91DC
S11341809C911797019617969C938E931697CE0140
S1134190DF91CF911F910F910895FA01AA2728303A
S11341A051F1203181F1E8946F936E7F6E5F7F4F00
S11341B08F4F9F4FAF4FB1E03ED0B4E03CD0670F7C
S11341C0781F891F9A1FA11D680F791F8A1F911DCF
S11341D0A11D6A0F711D811D911DA11D20D009F41F
S11341E068943F912AE0269F11243019305D319361
S11341F0DEF6CF010895462F4770405D4193B3E04A
S11342000FD0C9F7F6CF462F4F70405D4A3318F0F0
S1134210495D31FD4052419302D0A9F7EACFB4E0A1
S1134220A6959795879577956795BA95C9F7009759
S11342306105710508959B01AC010A2E06945795FA
S1134240479537952795BA95C9F7620F731F841F51
S10D4250951FA01D0895F894FFCFF8
S113425A00009F112000090000000300000000670D
S113426A1652160000C600CE00D600360144697301
S113427A74616E6365206D6561737572656D656ED3
S113428A742046726F6E74207461736B20004469E3
S113429A7374616E6365206D6561737572656D65AE
S11342AA6E74206261636B207461736B20004672C2
S11342BA6F6E7444697374616E63654D65617300EE
S11342CA4261636B44697374616E63654D656173BE
S11342DA004F62737461636C654576656E744861F8
S11342EA6E646C65720049444C4500546D722053E7
S11342FA76630053797374656D20496E69746961D4
S113430A6C697A6174696F6E20436F6D706C657441
S10D431A650048414C5F4C45440027
S9030000FC
