:1000000094C00000B3C00000B1C00000AFC0000049
:10001000ADC00000ABC00000A9C00000A7C0000038
:10002000A5C00000A3C00000A1C000009FC0000048
:1000300087C500009BC0000099C0000097C0000069
:1000400095C0000093C0000091C000008FC0000068
:100050008DC000008BC0000089C0000087C0000078
:1000600085C000000C94C2170C9414187FC00000C7
:100070007DC000007BC0000079C0000077C0000098
:1000800075C0000073C0000071C000006FC00000A8
:100090000C9458180C94AA1869C0000067C000009E
:1000A00065C0000063C0000061C000005FC00000C8
:1000B0005DC000005BC0000059C0000057C00000D8
:1000C00055C0000053C0000051C000000C94EE1851
:1000D0000C9440194BC000000C9484190C94D61950
:1000E00045C000004214421442147914811496143D
:1000F00042144214791481140E94710A80914511AE
:10010000823008F058D40E94BF14F6CFCF93DF930B
:100110001F92CDB7DEB7CE0101960E94C51149816D
:100120000E94B8130E940C14F6CF11241FBECFEF0B
:10013000D1E2DEBFCDBF00E00CBF13E0A0E0B2E033
:10014000E6EDF1E400E00BBF02C007900D92A4338E
:10015000B107D9F722E1A4E3B3E001C01D92A930B1
:10016000B207E1F70E94FD140C94E92049CFEF9209
:10017000FF920F9381E0D6D69093FE118093FD11EC
:1001800081E0D0D69093FA118093F911DBD190934E
:10019000FC118093FB11E12CF12C03E020E030E016
:1001A00040EC50E061E272E083E591E00E94340BA4
:1001B00020E030E040EC50E063E372E080EA91E060
:1001C0000E94340B0F91FF90EF9008950E94AB1D99
:1001D00067E470E00E94E31B4E960895EF92FF9251
:1001E0000F931F93CF93DF938C01F0DF7C01FF927D
:1001F0008F9384E492E09F938F930E94CD1DE6DF5E
:10020000EC01DF938F9388E592E09F938F930E9498
:10021000CD1DCE0DDF1DCC0FDD1FDF93CF9387E605
:1002200092E09F938F930E94CD1D1F930F9383E8BD
:1002300092E09F938F930E94CD1D81E02DB73EB732
:10024000205F3F4F0FB6F8943EBF0FBE2DBF0C1777
:100250001D0708F080E0DF91CF911F910F91FF9073
:10026000EF900895882311F030E001C036E028B106
:1002700081E090E002C0880F991F3A95E2F7822B47
:1002800088B90895882311F030E001C036E028B124
:1002900081E090E002C0880F991F3A95E2F78095BF
:1002A000822388B90895CF93DF9300D01F92CDB7F2
:1002B000DEB78BE992E00E94E01D63E070E080E031
:1002C00090E00E94580E0E94C20B69837A838B8350
:1002D0009C834FEF5FEFBA018091FD119091FE1169
:1002E000F2D68130A9F496D09093370380933603E9
:1002F000E0903603F090370300E020E030E0A90101
:1003000060E070E08091FD119091FE116BD502C00C
:10031000E12CF12CC70162DF882339F08BEB92E0EE
:100320000E94E01D81E09EDF02C081E0ABDF4EE372
:1003300050E060E070E0CE0101960E94D80DC9CF78
:10034000CF93DF9300D01F92CDB7DEB789EC92E058
:100350000E94E01D61E070E080E090E00E94580E95
:100360000E94C20B69837A838B839C834FEF5FEF7C
:10037000BA018091F9119091FA11A5D6813011F549
:1003800080E048D09093350380933403E0903403A9
:10039000F0903503FF92EF9288EE92E09F938F9357
:1003A0000E94CD1D00E020E030E0A90160E070E097
:1003B0008091F9119091FA1115D50F900F900F902F
:1003C0000F9002C0E12CF12CC70108DF882339F01F
:1003D0008BEB92E00E94E01D80E044DF02C080E0F1
:1003E00051DF4EE350E060E070E0CE0101960E94E4
:1003F000D80DBCCF87B1816087B988B1816088B9D9
:1004000087B1806487B987B1846087B987B182601A
:1004100087B908950F931F93CF93DF93882311F02B
:1004200032E001C031E0882311F004E001C003E0B4
:1004300025E32A95F1F7000028B181E090E002C0A1
:10044000880F991F3A95E2F7922F982B98B925E3D8
:100450002A95F1F7000098B18095892388B9E1E8E1
:10046000F0E0108184E08083109285001092840077
:1004700010C0609184007091850080E090E00E943F
:10048000031520E030E543EC55E40E944015882335
:10049000E4F586B1C02F90E0002E02C095958795B7
:1004A0000A94E2F780FFE5CF109285001092840055
:1004B00010C0609184007091850080E090E00E94FF
:1004C000031520E030E84BEB54E40E9440158823EC
:1004D00054F486B190E00C2E02C0959587950A944D
:1004E000E2F780FDE6CF20918400309185001093E3
:1004F0008100A7E5B1E00E94201C2DE730E040E03C
:1005000050E00E94F61BC90102C080E090E0DF913C
:10051000CF911F910F910895E7E0F1E080818F6006
:1005200080830895E8E0F1E09081907F908390814E
:100530008F70982B90830895E8E0F1E08081807FB0
:1005400080830895CF93DF938FE090E081D0EC011A
:10055000009739F0FC011192119211921192CF0182
:100560005CD1CE01DF91CF910895E4E4F3E0A8E4FB
:10057000B3E0B183A08313821282E0EFF0E1F09345
:100580004303E0934203138212821182108288EAAD
:100590009DE013969C938E931297ED93FC9390930A
:1005A0003F0380933E03909341038093400380E098
:1005B00090E890933903809338030895CF93DF93A5
:1005C000EC01A4E4B3E001C0DF01ED91FC911197CF
:1005D000EC17FD07C8F312968D919C9113979D011E
:1005E000280F391FC217D30749F42A813B81820F94
:1005F000931F13969C938E931297ED018A819B8192
:100600009E01280F391FE217F307C1F4209142031E
:1006100030914303E217F30771F022813381820F97
:10062000931F9B838A83ED91FC9111978081918127
:100630009983888305C03983288302C0F983E883BE
:10064000CA17DB0711F0CD93DC93DF91CF910895AA
:10065000EF92FF920F931F93CF93DF938C010E9431
:10066000BC0B8091420390914303892B09F47DDFF9
:10067000809138039091390380239123892B09F0CD
:1006800076C00115110549F0C8010496081719072D
:1006900018F000E010E001C08C010115110509F40B
:1006A00069C080914003909141038017910708F43D
:1006B00064C0C0914403D0914503E4E4F3E002C078
:1006C000FE01EC018A819B818017910720F48881CB
:1006D00099810097A9F78091420390914303C8172D
:1006E000D90709F44DC0E080F18084E0E80EF11CE8
:1006F00088819981918380832A813B81201B310BE2
:100700002930310548F0CE01800F911FFC01338361
:1007100022831B830A8352DF2A813B81809140031D
:1007200090914103821B930B90934103809340036C
:1007300040913E0350913F038417950720F4909316
:100740003F0380933E038091380390913903282B17
:10075000392B3B832A831982188280913C03909124
:100760003D03019690933D0380933C030BC0E12C25
:10077000F12C08C0E12CF12C05C0E12CF12C02C0B9
:10078000E12CF12C0E94FC0CE114F10411F40E9404
:10079000CB14C701DF91CF911F910F91FF90EF9084
:1007A00008950F931F93CF93DF93009789F1EC0186
:1007B00024974A815B812091380330913903BA0133
:1007C00062237323672B21F168817981672B01F5FF
:1007D00020953095242335233B832A83CDD78A81E6
:1007E0009B812091400330914103820F931F90938E
:1007F000410380934003CE01E1DE80913A03909162
:100800003B03019690933B0380933A030E94FC0CB8
:10081000DF91CF911F910F910895FC010396928370
:1008200081834FEF5FEFBA014383548365837683FF
:10083000908787839287818710820895FC011386B1
:10084000128608950F931F93CF93DF93EB010881D6
:1008500019812A813B810F3F4FEF1407240734078A
:1008600021F4FC01A185B28511C0DC01139601C001
:10087000DF011496ED91FC911597408151816281C1
:100880007381041715072607370790F71496ED9123
:10089000FC911597FD83EC83D783C683BF83AE831A
:1008A0001596DC93CE9314979B878A87FC01208151
:1008B0002F5F2083DF91CF911F910F910895CF93E8
:1008C000DF93FC01A285B385C481D58186819781A0
:1008D0009F838E83C681D781848195819D838C83FC
:1008E00011968D919C911297E817F90731F4868142
:1008F000978112969C938E931197138612868C91F2
:1009000081508C938C91DF91CF910895A89590ECB4
:1009100088E10FB6F894A895809360000FBE90937D
:1009200060000895FC0160833197708331971082D5
:1009300031971082319720E82083319710823197C8
:100940001082319710827797408331975083869732
:100950000895DCDFA091B311B091B411CD91CDBF5A
:10096000DD91DEBFFF91EF91DF91CF91BF91AF910C
:100970009F918F917F916F915F914F913F912F91B7
:100980001F910F91FF90EF90DF90CF90BF90AF90AD
:100990009F908F907F906F905F904F903F902F909F
:1009A0001F900F900CBE0F900BBE0F900FBE0F90BC
:1009B000089581E008950F920FB6F8940F920BB648
:1009C0000F920CB60F921F9211242F923F924F92CA
:1009D0005F926F927F928F929F92AF92BF92CF92CF
:1009E000DF92EF92FF920F931F932F933F934F93BA
:1009F0005F936F937F938F939F93AF93BF93CF93A7
:100A0000DF93EF93FF93A091B311B091B4110DB6A2
:100A10000D920EB60D920E94670EA091B311B09187
:100A2000B411CD91CDBFDD91DEBFFF91EF91DF918C
:100A3000CF91BF91AF919F918F917F916F915F9176
:100A40004F913F912F911F910F91FF90EF90DF9069
:100A5000CF90BF90AF909F908F907F906F905F905E
:100A60004F903F902F901F900F900CBE0F900BBE99
:100A70000F900FBE0F9008950F920FB6F8940F923B
:100A80000BB60F920CB60F921F9211242F923F9229
:100A90004F925F926F927F928F929F92AF92BF928E
:100AA000CF92DF92EF92FF920F931F932F933F937A
:100AB0004F935F936F937F938F939F93AF93BF9366
:100AC000CF93DF93EF93FF93A091B311B091B41143
:100AD0000DB60D920EB60D9213BE62D681110E9414
:100AE000670EA091B311B091B411CD91CDBFDD913E
:100AF000DEBFFF91EF91DF91CF91BF91AF919F91B9
:100B00008F917F916F915F914F913F912F911F91A5
:100B10000F91FF90EF90DF90CF90BF90AF909F909C
:100B20008F907F906F905F904F903F902F901F908D
:100B30000F900CBE0F900BBE0F900FBE0F9008953C
:100B40009BDF1895DC0153962C915397222341F09B
:100B50005A96ED91FC915B9790818AE0891B0895EC
:100B600080E008950FB6F8940F92FC01868D8111F4
:100B700002C081E001C080E00F900FBE08950FB663
:100B8000F8940F92FC01268D878D281302C081E016
:100B900001C080E00F900FBE08950F931F93CF9375
:100BA000DF93EC01042F1E8D48A141110CC08881F8
:100BB0009981892B09F042C08C819D810E94F1109E
:100BC0001D821C8242C0011117C050E08A819B81A6
:100BD0000E94BD1D28A18A819B81820F911D9B834C
:100BE0008A832C813D818217930750F188819981F6
:100BF0009B838A8380E029C050E08E819F810E9480
:100C0000BD1D88A190E09195819591092E813F812C
:100C1000280F391F3F832E834881598124173507B8
:100C200030F42C813D81820F931F9F838E8302308D
:100C300049F4112349F0115080E007C080E005C05D
:100C400080E003C080E001C080E01F5F1E8FDF9165
:100C5000CF911F910F910895FC0140A14423A9F069
:100C600050E026813781240F351F37832683848106
:100C700095812817390720F0808191819783868399
:100C8000CB01668177810C94BD1D08951F93CF938E
:100C9000DF93EC010FB6F8940F921AA10BC08B8969
:100CA000882351F0CE0143960E94320F81110E9499
:100CB0005810115011169CF38FEF8AA30F900FBE9E
:100CC0000FB6F8940F9219A10BC08885882351F0B4
:100CD000CE0108960E94320F81110E9458101150C7
:100CE00011169CF38FEF89A30F900FBEDF91CF9168
:100CF0001F910895CF93DF93EC010FB6F8940F92F4
:100D0000E881F9818F8D28A190E030E0829FA001D9
:100D1000839F500D929F500D11244E0F5F1F5D83D6
:100D20004C831E8EFB83EA830197289FA001299F95
:100D3000500D389F500D1124CF01840F951F9F83B4
:100D40008E838FEF89A38AA361110BC088858823C6
:100D500071F0CE0108960E94320F882341F02BDEFD
:100D600006C0CE01089659DDCE01439656DD0F90A0
:100D70000FBE81E0DF91CF9108950F931F93F8018B
:100D8000611103C01183008302C051834083878FA8
:100D900060A361E0CF01AEDF1F910F910895DF9254
:100DA000EF92FF920F931F93CF93DF93F82EE62ECF
:100DB000D42E869FC001112483964ADCEC01009753
:100DC00041F08C012D2DAC014D5D5F4F6E2D8F2DAF
:100DD000D4DFCE01DF91CF911F910F91FF90EF9063
:100DE000DF900895CF92DF92EF92FF920F931F93BF
:100DF000CF93DF93CDB7DEB729970FB6F894DEBF58
:100E00000FBECDBF7C016B012E833F83488759877E
:100E100010E00FB6F8940F92F701968D878D981712
:100E200010F00230B1F4402FB601C701B6DEF70171
:100E30009389992341F0C70143960E94320F88237A
:100E400021F0B9DD02C08111B6DD0F900FBE81E047
:100E500048C08E819F81A885B985892B8A2B8B2BD1
:100E600021F40F900FBE80E03CC0111105C0CE01EF
:100E700001960E94E10F11E00F900FBE7DD40FB6D6
:100E8000F8940F92F70181A18F3F09F411A2F701A5
:100E900082A18F3F09F412A20F900FBEBE016A5FBC
:100EA0007F4FCE0101960E94F20F811116C0C7013B
:100EB00066DE882371F04E815F8168857985C70180
:100EC000089677D7C701E2DE97D58111A2CF73DDEF
:100ED000A0CFC701DBDE90D59CCFC701D7DE8CD574
:100EE00080E029960FB6F894DEBF0FBECDBFDF912C
:100EF000CF911F910F91FF90EF90DF90CF900895C9
:100F00000F93009769F0FC01158214821182108200
:100F1000168200E020E030E0A90160E070E062DFCE
:100F20000F910895CF93DF93482F60E081E037DF82
:100F3000EC01E6DFCE01DF91CF910895EF92FF92B1
:100F40000F931F93CF93DF938A01FC01568D378D4A
:100F5000531710F02230F1F4422F7801EC011AA15E
:100F60008E8DCE011ADE1F3F79F48B898823A1F084
:100F7000CE01439677D7882389F0E114F10481F0FC
:100F800081E0F70180830DC0FF24F394F10EFAA2F3
:100F900081E007C080E005C081E003C081E001C0BE
:100FA00081E0DF91CF911F910F91FF90EF90089515
:100FB000CF92DF92EF92FF920F931F93CF93DF9325
:100FC000CDB7DEB729970FB6F894DEBF0FBECDBF01
:100FD0008C016B012E833F8348875987E12C0FB624
:100FE000F8940F92F801F68CFF2091F0B601C80139
:100FF00033DEFA94F801F68E8085882329F0C80143
:10100000089630D78111D7DC0F900FBE81E04CC01D
:101010008E819F81A885B985892B8A2B8B2B21F402
:101020000F900FBE80E040C0E11005C0CE010196D8
:10103000C8D7EE24E3940F900FBE9ED30FB6F8945A
:101040000F92F80181A18F3F09F411A2F80182A14A
:101050008F3F09F412A20F900FBEBE016A5F7F4F4F
:10106000CE010196BFD7811116C0C8017BDD882350
:1010700071F04E815F8168857985C801439699D664
:10108000C80104DEB9D48111AACF95DCA8CFC8016C
:10109000FDDDB2D4A4CFC801F9DDAED4C80162DD54
:1010A000882309F49CCF80E029960FB6F894DEBF20
:1010B0000FBECDBFDF91CF911F910F91FF90EF90A9
:1010C000DF90CF900895EF92FF920F931F93CF93ED
:1010D000DF93CDB7DEB729970FB6F894DEBF0FBE0A
:1010E000CDBF8C014E835F8368877987E12CF12C1B
:1010F0000FB6F8940F92F801868D8823C1F08150C5
:10110000868F80819181892B29F40E94B311F80187
:1011100095838483F8018085882329F0C801089687
:10112000A1D6811148DC0F900FBE81E06BC08E818B
:101130009F81A885B985892B8A2B8B2B21F40F9051
:101140000FBE80E05FC0F11005C0CE01019639D717
:10115000FF24F3940F900FBE0FD30FB6F8940F92A5
:10116000F80181A18F3F09F411A2F80182A18F3FFC
:1011700009F412A20F900FBEBE016A5F7F4FCE012D
:10118000019630D7811124C0C801ECDC8823E1F03E
:10119000F80180819181892B49F40FB6F8940F9260
:1011A0008481958197D7E82E0F900FBE4E815F8185
:1011B00068857985C8014396FCD5C80167DD1CD4D4
:1011C000811196CFF8DB94CFC80160DD15D490CFA4
:1011D000C8015CDD11D4C801C5DC882309F488CFBF
:1011E000EE2079F00FB6F8940F92C801ABDC682FAF
:1011F000F801848195810E944C110F900FBE80E010
:1012000001C080E029960FB6F894DEBF0FBECDBFB7
:10121000DF91CF911F910F91FF90EF900895CF93A1
:10122000DF93EC010FB6F8940F9289A18F3F09F478
:1012300019A28AA18F3F09F41AA20F900FBE8E8DBA
:10124000811103C0CE014396CBD5CE011FDDDF91C6
:10125000CF910895E0912D11F0912E11808181118F
:101260000CC08FEF9FEFDC018093F7109093F81084
:10127000A093F910B093FA100895E0912D11F09118
:101280002E110780F085E02D80819181A281B381AC
:101290008093F7109093F810A093F910B093FA1080
:1012A0000895CF93DF93EC018B8D9C8D7ADACE017C
:1012B00078DADF91CF9108954F925F926F927F928B
:1012C0008F929F92AF92BF92CF92DF92EF92FF9256
:1012D0000F93CF93DF932C015B014A013901E601A3
:1012E00065EA70E08B8D9C8D0E94C61D8B8D9C8D58
:1012F00021E0821A9108880E991EA114B10489F484
:1013000015C0822F90E0F501E80FF91F3081DE0152
:10131000A80FB91F5D963C938081882329F02F5F29
:1013200001C020E0203168F31CA601C01D8E0A30E8
:1013300008F009E00A8F0DA71EA6CE0102967EDAFC
:10134000CE010E967BDADB87CA878AE090E0A0E0C8
:10135000B0E0801B9109A109B1098E879F87A88BF6
:10136000B98BDF8BCE8B18AA1FA684E0FE01F19605
:10137000DF011D928A95E9F71DAAA301B201C401FC
:10138000D1DA99838883E114F10419F0F701D1834C
:10139000C083DF91CF910F91FF90EF90DF90CF90BE
:1013A000BF90AF909F908F907F906F905F904F9085
:1013B0000895CF93C0E008C02BE0C29FC001112464
:1013C0008B5B9E4E2ADACF5FCA30B0F38AE391E19D
:1013D00024DA8FE291E121DA80E291E11EDA85E1FF
:1013E00091E11BDA89E091E118DA8AE391E19093C7
:1013F0002E1180932D118FE291E190932C11809307
:101400002B11CF910895CF93DF93EC010FB6F89491
:101410000F92809108118F5F809308118091B31112
:101420009091B411892B51F4D093B411C093B3119E
:1014300080910811813091F4BCDF10C080910211BD
:1014400081110CC0E091B311F091B411928D8A8D8D
:10145000891720F0D093B411C093B3118091FB1081
:101460008F5F8093FB10EA8D809103118E1710F42B
:10147000E09303118BE08E9FF0011124EB5BFE4E95
:101480000180F281E02DFF83EE8326813781398749
:101490002887A681B7819E012E5F3F4F15963C930A
:1014A0002E93149737832683EA8D8E9FF0011124A3
:1014B000EB5BFE4EFD87EC8780818F5F80830F9012
:1014C0000FBE80910211882349F0E091B311F09191
:1014D000B411928D8A8D981708F46DDADF91CF914F
:1014E0000895CF93DF931AC00FB6F8940F92E0914E
:1014F0001C11F0911D11C085D185CE010296DFD956
:1015000080910811815080930811809114118150AD
:10151000809314110F900FBECE01C3DE8091141181
:101520008111E2CFDF91CF9108958F929F92AF9278
:10153000BF92CF92DF92EF92FF92CF93DF936B0136
:101540007C01C42F8090041190900511A090061189
:10155000B09007118091B3119091B4110296AFD958
:101560008FEFC816D806E806F806B1F5CC23A1F12E
:10157000E9E0F1E1A181B281C091B311D091B41140
:10158000BF83AE83C091B311D091B41116968D91E3
:101590009C911797998788871696CD91DC9117971C
:1015A0008091B3119091B41102969D838C838091A8
:1015B000B3119091B411029617969C938E9316973F
:1015C000A091B311B091B4111D96FC93EE931C97AA
:1015D00080818F5F80833DC0C80CD91CEA1CFB1C36
:1015E000E091B311F091B411C282D382E482F5820A
:1015F000C814D904EA04FB0460F46091B31170913B
:10160000B41180912B1190912C116E5F7F4F1AD9DC
:1016100020C06091B3117091B41180912D119091FF
:101620002E116E5F7F4F0ED98091F7109091F810B8
:10163000A091F910B091FA10C816D906EA06FB0677
:1016400040F4C092F710D092F810E092F910F092A6
:10165000FA10DF91CF91FF90EF90DF90CF90BF9085
:10166000AF909F908F9008952F923F924F925F92EC
:101670006F927F928F929F92AF92BF92CF92DF92A2
:10168000EF92FF920F93CF93DF933C011B014A012E
:101690002901CA010E9428036C01892B69F086E3A5
:1016A00090E00E942803EC01892B19F0DC8ECB8E90
:1016B00005C0C60176D802C0C0E0D0E0209761F036
:1016C000A12CB12C6E019201A401B101C301F4DD82
:1016D000CE0199DE81E001C08FEFDF91CF910F91B4
:1016E000FF90EF90DF90CF90BF90AF909F908F9042
:1016F0007F906F905F904F903F902F900895EF9262
:10170000FF920F930F2EF5EFEF2EF0E1FF2EF02D4D
:1017100000E020E030E040EC50E06FEF72E08CE75A
:1017200090E0A2DF813009F4BAD68130F9F4F89460
:101730008FEF9FEFDC018093F7109093F810A09348
:10174000F910B093FA1081E0809302111092041105
:10175000109205111092061110920711E091B31129
:10176000F091B41187A50E949202F3D880910A02E9
:101770000F91FF90EF9008958091F4108F5F809308
:10178000F41008950FB6F8940F92609104117091BF
:10179000051180910611909107110F900FBE0895C9
:1017A000CF92DF92EF92FF92CF93DF938091F4106C
:1017B000811105C1C0900411D0900511E09006116F
:1017C000F09007118FEFC81AD80AE80AF80AC092F9
:1017D0000411D0920511E0920611F0920711C11484
:1017E000D104E104F104B1F480912D1190912E11F6
:1017F00020912B1130912C1130932E1120932D110B
:1018000090932C1180932B118091FC108F5F80930B
:10181000FC1020DD8091F7109091F810A091F91044
:10182000B091FA10C816D906EA06FB0620F480E04B
:10183000B2C081E001C080E0E0912D11F0912E1145
:10184000908191110CC04FEF5FEFBA014093F710F8
:101850005093F8106093F9107093FA109CC0E091C7
:101860002D11F0912E110780F085E02D0084F18577
:10187000E02D4281538164817581C416D506E60648
:10188000F70648F44093F7105093F8106093F9105E
:101890007093FA1080C0A485B585C681D781208554
:1018A00031853F832E83C085D185268137813D8355
:1018B0002C8311964D915C9112979F012E5F3F4FA3
:1018C0004217530731F44085518512965C934E932D
:1018D0001197158614869C9191509C93A08DB18D83
:1018E000109709F1C289D389448955895F834E8352
:1018F000C489D589428953895D834C8311966D9142
:101900007C911297AF01425F5F4F6417750731F406
:101910004489558912965C934E931197118E108EBF
:101920009C9191509C93A28D909103119A1710F461
:10193000A09303119BE09A9FD0011124AB5BBE4E94
:1019400011960D90BC91A02DB783A68316964D914C
:101950005C911797518740871696CD91DC91179728
:101960003D832C8317963C932E931697A28D9A9FB6
:10197000D0011124AB5BBE4EB587A4879C919F5FBD
:101980009C93228DE091B311F091B411928D29179F
:1019900008F04FCF51CFE091B311F091B411E28D27
:1019A0009BE0E99FF0011124EB5BFE4E90819230A9
:1019B00008F081E09091FD10911116C016C0809141
:1019C000FE109091FF10A0910011B09101110196AD
:1019D000A11DB11D8093FE109093FF10A0930011E4
:1019E000B093011180E001C081E0DF91CF91FF90C1
:1019F000EF90DF90CF900895CF92DF92EF92FF9219
:101A0000CF93DF930FB6F8940F928091F41081502A
:101A10008093F4108091F4108111BEC08091081160
:101A2000811188C0BCC0E0912711F0912811008479
:101A3000F185E02DA08DB18DC289D38984899589E6
:101A40009F838E83C489D589828993899D838C8362
:101A500011962D913C911297CF010E9628173907B8
:101A600031F48489958912969C938E931197118EE7
:101A7000108E8C9181508C93A485B585C681D781B9
:101A8000808591859F838E83C085D185868197814E
:101A90009D838C8311968D919C9112979F012E5F4F
:101AA0003F4F8217930731F48085918512969C935E
:101AB0008E931197158614868C9181508C93A28DEC
:101AC000809103118A1710F4A09303118BE08A9F71
:101AD000D0011124AB5BBE4E11960D90BC91A02D90
:101AE000B783A68316964D915C91179751874087CF
:101AF0001696CD91DC9117973D832C8317963C93D6
:101B00002E931697A28D8A9FD0011124AB5BBE4EF7
:101B1000B587A4878C918F5F8C93928DA091B31120
:101B2000B091B4115A968C91981730F081E080935F
:101B3000FD1002C0E0E0F0E080912011811173CF30
:101B4000EF2B09F087DBC090FE10D090FF10E090E3
:101B50000011F0900111C114D104E104F104A1F0CD
:101B60001FDE882319F081E08093FD1081E0C81A00
:101B7000D108E108F108A1F71092FE101092FF10B1
:101B800010920011109201118091FD10882331F004
:101B90000E94DB0481E003C080E001C080E00F9080
:101BA0000FBEDF91CF91FF90EF90DF90CF9008951F
:101BB0008F929F92AF92BF92CF92DF92EF92FF925D
:101BC0001F93CF93DF93EC016A017B01D5DD8090F9
:101BD000041190900511A0900611B0900711888112
:101BE0009981AA81BB81AC01BD014C0D5D1D6E1DAB
:101BF0007F1D88169906AA06BB0660F44817590788
:101C00006A077B0798F484169506A606B70680F047
:101C100010E013C0481759076A077B0758F084166D
:101C20009506A606B70640F010E007C010E005C014
:101C300011E003C011E001C011E0488359836A83B9
:101C40007B83112341F0CB01BA01681979098A0914
:101C50009B0940E06ADCD0DE811102C00E94DB04F7
:101C6000812FDF91CF911F91FF90EF90DF90CF9068
:101C7000BF90AF909F908F900895CF92DF92EF9298
:101C8000FF926B017C01672B682B692B39F074DDA7
:101C900040E0C701B60149DCAFDE01C080E0811140
:101CA00002C00E94DB04FF90EF90DF90CF90089578
:101CB000009721F48091B3119091B4110FB6F8946C
:101CC0000F92FC0170AB67A70F900FBE0895809133
:101CD000F410882321F081E08093FD100895109284
:101CE000FD10E091B311F091B41187A50E949C0200
:101CF000E091B311F091B41120813181E091B311E1
:101D0000F091B411838D948D8217930758F06091F0
:101D1000B3117091B411635E7F4F8091B3119091B4
:101D2000B41145D68091031101C08150282F30E0B5
:101D30009BE0929FF001939FF00D1124EB5BFE4E10
:101D40009081992391F39BE0929FA001939F500D66
:101D50001124DF010180F281E02D0480F581E02D66
:101D60001296FC93EE931197485B5E4EE417F507CD
:101D700029F444815581FD01528341839BE0929F68
:101D8000F001939FF00D1124EB5BFE4E0180F28178
:101D9000E02D208531853093B4112093B3118093C9
:101DA0000311E091B311F091B41187A50C94920244
:101DB0000895CF92DF92EF92FF926A017B016091CA
:101DC000B3117091B411625F7F4F0E94220441E011
:101DD000C701B601AADBFF90EF90DF90CF90089586
:101DE000CF93DF93FC01CB01BA01A181B281C091F5
:101DF000B311D091B411BB8BAA8BC091B311D09108
:101E0000B41116964D915C9117975D8B4C8B16967D
:101E1000CD91DC9117974091B3115091B411425F6D
:101E20005F4F5D834C834091B3115091B411425F79
:101E30005F4F17965C934E931697A091B311B09194
:101E4000B4115996FC93EE93589730813F5F3083DD
:101E5000222319F06FEF7FEFCB01422F66DBDF917A
:101E6000CF910895CF93DF93DC011796ED91FC910C
:101E700018970084F185E02DA08DB18DC289D3899A
:101E8000848995899F838E83C489D5898289938922
:101E90009D838C8311968D919C9112979F01225F57
:101EA0003F4F8217930731F48489958912969C934A
:101EB0008E931197118E108E8C9181508C938091FE
:101EC000F410811152C0A485B585C681D781808563
:101ED00091859F838E83C085D185868197819D83DF
:101EE0008C8311968D919C9112979F012E5F3F4F8D
:101EF0008217930731F48085918512969C938E9377
:101F00001197158614868C9181508C93A28D8091A7
:101F100003118A1710F4A09303118BE08A9FD0015C
:101F20001124AB5BBE4E11960D90BC91A02DB783D2
:101F3000A68316964D915C91179751874087169608
:101F4000CD91DC9117973D832C8317963C932E936C
:101F50001697A28D8A9FD0011124AB5BBE4EB58728
:101F6000A4878C918F5F8C931CC040E251E1DA0111
:101F70001196CD91DC911297D38BC28B8E819F816C
:101F8000958B848B8E819F81DC0115963C932E93DB
:101F900014973F832E83518F408FDA018C918F5F8E
:101FA0008C93928DE091B311F091B411828D8917C9
:101FB00020F481E08093FD1001C080E0DF91CF919B
:101FC00008952091FC10FC01208340910411509150
:101FD000051160910611709107114183528363834B
:101FE000748308958F929F92AF92BF92CF92DF92A7
:101FF000EF92FF920F931F93CF93DF93FB010FB6E6
:10200000F8940F92C0900411D0900511E090061141
:10201000F0900711DC0111960D911D912D913C91CD
:10202000149746015701801A910AA20AB30A408107
:102030005181628173814F3FBFEF5B076B077B0765
:1020400039F1EC01B881A091FC10BA1759F0C01613
:10205000D106E206F30630F010821182128213825A
:1020600081E017C084169506A606B70658F44819ED
:1020700059096A097B094083518362837383A1DF15
:1020800080E007C0108211821282138281E001C0B9
:1020900080E00F900FBEDF91CF911F910F91FF90C5
:1020A000EF90DF90CF90BF90AF909F908F9008956A
:1020B00081E08093FD10089580910211882331F012
:1020C0008091F410811104C082E0089581E00895A8
:1020D00080E008950F931F93CF93DF93FC01892B2A
:1020E00009F477C0828DA091B311B091B4115A96C2
:1020F0009C91891708F063C046855785608971896E
:10210000772394F0A091B311B091B4115A969C9199
:102110004AE050E060E070E0491B51096109710933
:1021200046875787608B718B248535854BE0849F6C
:10213000C00111248B5B9E4E28173907B9F5EF01BA
:102140008F010E5F1F4FC8010E945F04E091B31121
:10215000F091B411E28DEA8F809103118E1710F483
:10216000E09303118BE08E9FF0011124EB5BFE4E98
:102170000180F281E02DFF83EE832681378139874C
:102180002887A681B78115961C930E931497178301
:102190000683EA8D8E9FF0011124EB5BFE4EFD87D6
:1021A000EC8780818F5F808381E016C0A091B3119E
:1021B000B091B4115A968C91828F81E00DC095A593
:1021C000E091B311F091B411828D981720F080E066
:1021D00003C080E001C081E0DF91CF911F910F919A
:1021E00008950F931F93CF93DF93FC01892B09F47C
:1021F00049C086A5815086A7228D95A5291709F487
:1022000043C0811143C0EF018F010E5F1F4FC80112
:102210000E945F04EDA5EA8F8AE090E0A0E0B0E0C4
:102220008E1B9109A109B1098E879F87A88BB98B55
:10223000809103118E1710F4E09303118BE08E9FB1
:10224000F0011124EB5BFE4E0180F281E02DFF8353
:10225000EE832681378139872887A681B781159635
:102260001C930E93149717830683EA8D8E9FF001BB
:102270001124EB5BFE4EFD87EC8780818F5F8083AE
:1022800081E005C080E003C080E001C080E0DF9114
:10229000CF911F910F9108950F931F93CF93DF93C9
:1022A000FC01892B09F45AC085A5861708F4862FEE
:1022B000928D891709F452C026A5213009F04EC02D
:1022C000828F4685578560897189772364F04AE05B
:1022D00050E060E070E0481B5109610971094687D0
:1022E0005787608B718B248535854BE0949FC001A7
:1022F00011248B5B9E4E2817390781F5EF018F0162
:102300000E5F1F4FC8010E945F04EA8D8091031188
:102310008E1710F4E09303118BE08E9FF0011124CF
:10232000EB5BFE4E0180F281E02DFF83EE83268180
:10233000378139872887A681B78115961C930E931C
:10234000149717830683EA8D8E9FF0011124EB5BAF
:10235000FE4EFD87EC8780818F5F8083DF91CF9178
:102360001F910F9108958091B3119091B411892B11
:1023700039F0E091B311F091B41186A58F5F86A773
:102380008091B3119091B4110895DC01E091BF11D7
:10239000F091C011808191E0811190E09C939111A6
:1023A00008C00780F085E02D608171818281938172
:1023B000089560E070E0CB010895CF92DF92EF9234
:1023C000FF920F931F93FC014283538364837583B1
:1023D000938782870417150726073707C0F00C1963
:1023E0001D092E093F0986859785A089B18908179F
:1023F00019072A073B0700F5BF016E5F7F4F8091E9
:10240000BD119091BE110E94220480E018C00C15ED
:102410001D052E053F0528F44C155D056E057F054D
:1024200068F4BF016E5F7F4F8091BF119091C01122
:102430000E94220480E003C081E001C081E01F917E
:102440000F91FF90EF90DF90CF9008950FB6F89422
:102450000F928091BB119091BC11892BE9F48CEC07
:1024600091E10E940D0481EC91E10E940D048CEC3D
:1024700091E19093C0118093BF1181EC91E1909311
:10248000BE118093BD1140E067E08AE00E94CF0654
:102490009093BC118093BB110F900FBE0895EF92E3
:1024A000FF920F93D3DF8091BB119091BC11892BC8
:1024B00089F00F2EF9EBEF2EF1E1FF2EF02D03E066
:1024C00020E030E040EC50E064E073E086E890E02B
:1024D000CBD801C080E00F91FF90EF9008958F92CC
:1024E0009F92AF92BF92CF92DF92EF92FF920F93A3
:1024F0001F93CF93DF93CDB7DEB727970FB6F8942E
:10250000DEBF0FBECDBFE091BB11F091BC11309783
:1025100081F169832A833B834C835D839F838E8310
:102520006630F4F4C9DD823069F400E0A701960159
:10253000BE016F5F7F4F8091BB119091BC110E94D3
:10254000F20618C000E020E030E0A901BE016F5F94
:102550007F4F8091BB119091BC110E94F2060AC07E
:1025600020E0A801BE016F5F7F4FCF010E949E0750
:1025700001C080E027960FB6F894DEBF0FBECDBF36
:10258000DF91CF911F910F91FF90EF90DF90CF904F
:10259000BF90AF909F908F9008958F929F92AF922F
:1025A000BF92CF92DF92EF92FF920F931F93CF9340
:1025B000DF933BC00780F085E02D80809180A28072
:1025C000B380C085D1858E010E5F1F4FC8010E9468
:1025D0005F04EC89FD89CE0119958E8982FF25C0A3
:1025E0008E859F85A889B989880D991DAA1DBB1D57
:1025F00088169906AA06BB0670F48A839B83AC836F
:10260000BD83DB87CA87B8018091BF119091C0114B
:102610000E9422040AC0C12CD12C760100E010E0F7
:10262000A501940160E0CE015ADFE091BF11F09165
:10263000C01180818111BECF8091BD119091BE11DA
:102640009093C0118093BF11F093BE11E093BD1120
:10265000DF91CF911F910F91FF90EF90DF90CF907E
:10266000BF90AF909F908F900895CF92DF92EF929E
:10267000FF92CF93DF93EC0185D86B017C018091B1
:10268000B5119091B611A091B711B091B811C816BB
:10269000D906EA06FB0620F480DF81E0888301C0CA
:1026A0001882C092B511D092B611E092B711F09293
:1026B000B811C701B601DF91CF91FF90EF90DF9085
:1026C000CF9008954F925F926F927F928F929F92D8
:1026D000AF92BF92CF92DF92EF92FF920F931F9330
:1026E000CF93DF934B015C0129013A01E091BF11C7
:1026F000F091C0110780F085E02DC085D185CE0115
:1027000002960E945F048E8982FF1BC04E855F8502
:1027100068897989480D591D6A1D7B1D7501640101
:1027200093018201CE0149DE882369F0C12CD12CAE
:10273000760100E010E0A501940160E0CE01CFDE5B
:1027400002C08E7F8E8BEC89FD89CE011995DF91B9
:10275000CF911F910F91FF90EF90DF90CF90BF909E
:10276000AF909F908F907F906F905F904F90089563
:102770008F929F92AF92BF92CF92DF92EF92FF9291
:102780001F93CF93DF931F92CDB7DEB76B017C0110
:10279000142F0E94BC0BCE01019667DF4B015C0138
:1027A000898181112BC011110CC08C149D04AE04C1
:1027B000BF0438F021D9A5019401C701B60182DF19
:1027C0001EC0112341F0E091BD11F091BE11808136
:1027D00011E0811110E0B701A601481959096A09F1
:1027E0007B09212F8091BB119091BC110E940F0990
:1027F00003D9811104C00E94DB0401C0FDD80F90F1
:10280000DF91CF911F91FF90EF90DF90CF90BF901D
:10281000AF909F908F900895AF92BF92CF92DF922A
:10282000EF92FF920F931F93CF93DF93CDB7DEB755
:1028300028970FB6F894DEBF0FBECDBF81C0898147
:1028400088230CF47DC0AE80BF80D5011C968D918D
:102850009C911D97892B21F0C50102960E945F046F
:10286000CE01089602DF8B019C01E9810E2E000C3F
:10287000FF0BEA30F10508F063C08827EE58FF4FE0
:102880008F4FD6C7F50186898160868BCA80DB8031
:10289000EC80FD8046855785608971894C0D5D1DF2
:1028A0006E1D7F1DC50189DD882309F449C0D5014E
:1028B0005496ED91FC915597C5011995F5018689BE
:1028C00082FF3EC04A815B816C817D8186859785D0
:1028D000A089B1899A01AB01280F391F4A1F5B1FDC
:1028E000C12CD12C760100E010E060E0C501F7DDDD
:1028F00027C0D50156968C9156978E7F56968C930D
:102900001FC0F50186898160868B4A815B816C815D
:102910007D8146875787608B718B400F511F621FE7
:10292000731F68017901C50148DD0AC0F501868978
:1029300081FD04C0C5010E94D10302C08E7F868B39
:1029400020E030E0A901BE016F5F7F4F8091BB1195
:102950009091BC110E94D807811171CF28960FB6B3
:10296000F894DEBF0FBECDBFDF91CF911F910F91C5
:10297000FF90EF90DF90CF90BF90AF9008950895B3
:1029800084B1806884B985B1806885B9089583B1C0
:10299000806883B90895F4DF2FEF80E792E021503B
:1029A00080409040E1F700C00000F1DFF5CFE8DFA4
:1029B0002FEF87EA91E6215080409040E1F700C078
:1029C0000000E5DFF5CF0E948C0280E09FD085E01B
:1029D00090E0A3D187B1816087B988B18E7F88B933
:1029E00087B1806487B988B18F7B88B90E94FA016A
:1029F0008CE093E00C94E01D0895E5DF0E94B700A1
:102A00000E947F0BFFCFE89409C097FB3EF490959E
:102A10008095709561957F4F8F4F9F4F9923A9F0B7
:102A2000F92F96E9BB279395F69587957795679546
:102A3000B795F111F8CFFAF4BB0F11F460FF1BC08A
:102A40006F5F7F4F8F4F9F4F16C0882311F096E91D
:102A500011C0772321F09EE8872F762F05C06623CB
:102A600071F096E8862F70E060E02AF09A95660F84
:102A7000771F881FDAF7880F9695879597F908953D
:102A800003D008F48FEF0895990F0008550FAA0B93
:102A9000E0E8FEEF16161706E807F907C0F0121671
:102AA0001306E407F50798F0621B730B840B950B74
:102AB00039F40A2661F0232B242B252B21F40895C9
:102AC0000A2609F4A140A6958FEF811D811D089566
:102AD000CF93DF931F92CDB7DEB7BE016F5F7F4FFD
:102AE0008091D7119091D8112DD28111F6CF898183
:102AF00090E00F90DF91CF910895682F8091D711CA
:102B00009091D811F4D180E090E008958F929F9237
:102B1000AF92CF92EF920F93812C912C6894AA24BC
:102B2000A7F86894CC24C7F8E12C00E023E040E04B
:102B300051EE60E070E03FD19093D8118093D711AF
:102B4000E3E0F2E18BE092E09183808393838283E0
:102B50000F91EF90CF90AF909F908F90089590E05D
:102B6000FC01EE0FFF1FE80FF91FEE0FFF1FE752EA
:102B7000FE4E238121111FC09C01220F331FF9013A
:102B8000E80FF91FEE0FFF1FE752FE4EA081B18143
:102B90004C91F901E80FF91FEE0FFF1FE752FE4EAF
:102BA00081E090E0028002C0880F991F0A94E2F74A
:102BB000842B8C930895FC01EE0FFF1FDF01A80FFB
:102BC000B91FAA0FBB1FA752BE4E0D90BC91A02DDE
:102BD0002C91E80FF91FEE0FFF1FE752FE4E81E028
:102BE00090E0028002C0880F991F0A94E2F7809556
:102BF00082238C93089590E0FC01EE0FFF1FE80FF5
:102C0000F91FEE0FFF1FE752FE4E2381211120C056
:102C10009C01220F331FF901E80FF91FEE0FFF1F70
:102C2000E752FE4EA081B1814C91F901E80FF91FE6
:102C3000EE0FFF1FE752FE4E81E090E0028002C0DF
:102C4000880F991F0A94E2F7809584238C93089546
:102C5000FC01EE0FFF1FDF01A80FB91FAA0FBB1F5A
:102C6000A752BE4E0D90BC91A02D2C91E80FF91FDC
:102C7000EE0FFF1FE752FE4E81E090E0028002C09F
:102C8000880F991F0A94E2F7822B8C930895CC2425
:102C9000C394D12C6894BB24B2F8C9EDD1E110E003
:102CA0008C81813081F018F1823061F5E881F98101
:102CB0002081C6010A8002C0880F991F0A94E2F79A
:102CC000822780831FC08D818F5F863010F48D83B3
:102CD00019C01D82E881F9812081C6010A8002C0E5
:102CE000880F991F0A94E2F7822780830BC00D8119
:102CF000002329F0812F7FDF01500D8303C0BC82A8
:102D0000812F2DDF1F5F2696143051F66CE070E0A6
:102D100080E090E00E943D0EC0CFEF92FF920F93B3
:102D20001F93CF93DF93082F80E487B9C9EDD1E1DA
:102D30000F2EF8E2EF2EF12CF02DF982E88286E0DA
:102D40008A831B8214E01C8380E009DF80E887B956
:102D5000FF82EE8287E0888719861A8781E0FFDE8E
:102D600080E283BB84E390E09D878C8785E08E873B
:102D70001F86188B82E0F3DE80E18093010182E000
:102D800091E09B8B8A8B1C8B1D8A1E8B83E0E7DE78
:102D9000E12CF12C20E030E040EC50E06BE273E0FD
:102DA00087E496E10E94340BDF91CF911F910F9140
:102DB000FF90EF9008952F923F924F925F926F9203
:102DC0007F928F929F92AF92CF92EF92FF920F934A
:102DD0001F93CF93DF93CDB7DEB7F82E2A013B01C7
:102DE00088E090E050D58C018F2D90E0FC01EE0F33
:102DF000FF1FEF50FE4E118300830115110509F4EA
:102E000064C0880F991FFC01E75EFD4F80819181AE
:102E1000D8018D939C938C2D90E0880F991F880F7B
:102E2000991F31D51C0186E090E02DD57C014C2DF9
:102E3000B10100D3F801F582E4828A2D90E0880F79
:102E4000991F880F991F1FD51C0186E090E01BD5A4
:102E50007C014A2DB101EED2D8011396FC92EE927C
:102E6000129717969C928E921697FFB6F894ED9152
:102E7000FC91119736978081826080838D909C9021
:102E8000C301B201C0DD20E030E040E051E438D4BD
:102E90009B01AC0160E074E284E79BE44CD320E04A
:102EA00030E040E85FE3E2D2AED3F40132976083D2
:102EB000D801ED91FC911197359788E98083ED91C8
:102EC000FC91349786E08083FFBEC801DF91CF91EB
:102ED0001F910F91FF90EF90CF90AF909F908F90A8
:102EE0007F906F905F904F903F902F900895CF9379
:102EF000DF93DC01892B01F11296ED91FC91139780
:102F0000938182812581981B922384819817B1F047
:102F1000838126952823C081D181C20FD11D68836A
:102F20008F5F958189238383ED91FC913597808113
:102F30008062808380E003C081E001C082E0DF9195
:102F4000CF9108950097D1F0DC011496ED91FC919A
:102F5000159793818281981799F092818581869542
:102F60008923A081B181A80FB11D8C91DB018C93C5
:102F70009F5F85819823928380E0089581E0089582
:102F800083E008951F920F920FB60F9211240BB693
:102F90000F922F933F934F935F936F937F938F93F2
:102FA0009F93AF93BF93CF93DF93EF93FF93A09142
:102FB000F111B091F211109711F16091C6001496C1
:102FC000ED91FC911597938182812581981B922325
:102FD0008481981761F0838126952823C081D1814F
:102FE000C20FD11D68838F5F9581892383831696D5
:102FF000ED91FC911797309711F0CD011995FF9144
:10300000EF91DF91CF91BF91AF919F918F917F9180
:103010006F915F914F913F912F910F900BBE0F9049
:103020000FBE0F901F9018951F920F920FB60F9220
:1030300011240BB60F922F938F939F93AF93BF934F
:10304000EF93FF93E091F111F091F2113097B9F005
:103050000280F381E02D938182819817B1F09281F3
:103060008581282F26952923A081B181A20FB11D2A
:103070002C919F5F892382832093C6000BC0E1ECD3
:10308000F0E080818F7D808305C0E1ECF0E08081FD
:103090008F7D8083FF91EF91BF91AF919F918F9131
:1030A0002F910F900BBE0F900FBE0F901F90189591
:1030B0001F920F920FB60F9211240BB60F922F93FF
:1030C0003F934F935F936F937F938F939F93AF93B0
:1030D000BF93CF93DF93EF93FF93A091F311B09140
:1030E000F411109711F16091CE001496ED91FC91BE
:1030F0001597938182812581981B9223848198174B
:1031000061F0838126952823C081D181C20FD11D12
:1031100068838F5F9581892383831696ED91FC9157
:103120001797309711F0CD011995FF91EF91DF912D
:10313000CF91BF91AF919F918F917F916F915F914F
:103140004F913F912F910F900BBE0F900FBE0F909C
:103150001F9018951F920F920FB60F9211240BB665
:103160000F922F938F939F93AF93BF93EF93FF9300
:10317000E091F311F091F4113097B9F00280F381EE
:10318000E02D938182819817B1F092818581282F5B
:1031900026952923A081B181A20FB11D2C919F5F9B
:1031A000892382832093CE000BC0E9ECF0E080817C
:1031B0008F7D808305C0E9ECF0E080818F7D808386
:1031C000FF91EF91BF91AF919F918F912F910F90B0
:1031D0000BBE0F900FBE0F901F9018951F920F926D
:1031E0000FB60F9211240BB60F922F933F934F936C
:1031F0005F936F937F938F939F93AF93BF93CF937F
:10320000DF93EF93FF93A091F511B091F611109712
:1032100011F16091D6001496ED91FC911597938170
:1032200082812581981B92238481981761F0838184
:1032300026952823C081D181C20FD11D68838F5F5D
:103240009581892383831696ED91FC91179730978A
:1032500011F0CD011995FF91EF91DF91CF91BF91C1
:10326000AF919F918F917F916F915F914F913F911E
:103270002F910F900BBE0F900FBE0F901F901895BF
:103280001F920F920FB60F9211240BB60F922F932D
:103290008F939F93AF93BF93EF93FF93E091F511BB
:1032A000F091F6113097B9F00280F381E02D93810F
:1032B00082819817B1F092818581282F2695292344
:1032C000A081B181A20FB11D2C919F5F89238283C0
:1032D0002093D6000BC0E1EDF0E080818F7D8083EC
:1032E00005C0E1EDF0E080818F7D8083FF91EF915B
:1032F000BF91AF919F918F912F910F900BBE0F9027
:103300000FBE0F901F9018951F920F920FB60F923D
:1033100011240BB60F922F933F934F935F936F93AC
:103320007F938F939F93AF93BF93CF93DF93EF934D
:10333000FF93A091F711B091F811109711F16091DE
:1033400036011496ED91FC91159793818281258128
:10335000981B92238481981761F0838126952823F6
:10336000C081D181C20FD11D68838F5F9581892370
:1033700083831696ED91FC911797309711F0CD014C
:103380001995FF91EF91DF91CF91BF91AF919F91EF
:103390008F917F916F915F914F913F912F910F90FE
:1033A0000BBE0F900FBE0F901F9018951F920F929B
:1033B0000FB60F9211240BB60F922F938F939F93FA
:1033C000AF93BF93EF93FF93E091F711F091F81152
:1033D0003097B9F00280F381E02D938182819817B4
:1033E000B1F092818581282F26952923A081B18172
:1033F000A20FB11D2C919F5F8923828320933601F8
:103400000BC0E1E3F1E080818F7D808305C0E1E3C3
:10341000F1E080818F7D8083FF91EF91BF91AF912B
:103420009F918F912F910F900BBE0F900FBE0F9019
:103430001F901895FC01411101C09BD3842F90E08F
:103440009C012150310982239323892B09F091D3C8
:10345000413808F08ED3128213824483440F4150C6
:1034600045837183608380E090E008955058BB27C6
:10347000AA270ED00BC1FCD030F001D120F031F4DE
:103480009F3F11F41EF4F1C00EF4E095E7FBE7C096
:10349000E92F0DD180F3BA176207730784079507E8
:1034A00018F071F49EF525C10EF4E0950B2EBA2F9D
:1034B000A02D0B01B90190010C01CA01A00111243A
:1034C000FF27591B99F0593F50F4503E68F11A16E6
:1034D000F040A22F232F342F4427585FF3CF469577
:1034E00037952795A795F0405395C9F77EF41F1699
:1034F000BA0B620B730B840BBAF09150A1F0FF0F63
:10350000BB1F661F771F881FC2F70EC0BA0F621F4E
:10351000731F841F48F4879577956795B795F7953E
:103520009E3F08F0B3CF9395880F08F09927EE0FD0
:103530009795879508950CD0A9C0A1D040F098D058
:1035400030F021F45F3F19F08AC05111D3C08DC013
:10355000AED098F39923C9F35523B1F3951B550BBE
:10356000BB27AA2762177307840738F09F5F5F4F56
:10357000220F331F441FAA1FA9F333D00E2E3AF097
:10358000E0E830D091505040E695001CCAF729D0B1
:10359000FE2F27D0660F771F881FBB1F2617370700
:1035A0004807AB07B0E809F0BB0B802DBF01FF2730
:1035B00093585F4F2AF09E3F510568F050C09AC063
:1035C0005F3FECF3983EDCF3869577956795B7956A
:1035D000F7959F5FC9F7880F911D9695879597F985
:1035E0000895E1E0660F771F881FBB1F62177307FE
:1035F0008407BA0720F0621B730B840BBA0BEE1F13
:1036000088F7E09508955BD088F09F5790F0B92F28
:103610009927B751A0F0D1F0660F771F881F991F27
:103620001AF0BA95C9F712C0B13081F062D0B1E09A
:1036300008955FC0672F782F8827B85F39F0B93FAA
:10364000CCF3869577956795B395D9F73EF4909529
:103650008095709561957F4F8F4F9F4F089597F993
:103660009F6780E870E060E008959FEF80EC089528
:1036700000240A9416161706180609060895002451
:103680000A9412161306140605060895092E0394CB
:10369000000C11F4882352F0BB0F40F4BF2B11F43F
:1036A00060FF04C06F5F7F4F8F4F9F4F089557FD9E
:1036B0009058440F551F59F05F3F71F04795880FA0
:1036C00097FB991F61F09F3F79F087950895121637
:1036D00013061406551FF2CF4695F1DF08C01616E3
:1036E00017061806991FF1CF869571056105089494
:1036F0000895E894BB2766277727CB0197F90895AB
:103700000BD0C4CFB5DF28F0BADF18F0952309F04D
:10371000A6CFABCF1124EECFCADFA0F3959FD1F394
:10372000950F50E0551F629FF001729FBB27F00D6F
:10373000B11D639FAA27F00DB11DAA1F649F6627C4
:10374000B00DA11D661F829F2227B00DA11D621F13
:10375000739FB00DA11D621F839FA00D611D221FCD
:10376000749F3327A00D611D231F849F600D211DB1
:10377000822F762F6A2F11249F5750408AF0E1F054
:1037800088234AF0EE0FFF1FBB1F661F771F881F9D
:1037900091505040A9F79E3F510570F060CFAACFDD
:1037A0005F3FECF3983EDCF3869577956795B79588
:1037B000F795E7959F5FC1F7FE2B880F911D9695B2
:1037C000879597F9089597FB072E16F4009406D075
:1037D00077FD08D044D007FC05D03EF49095819544
:1037E0009F4F0895709561957F4F0895A1E21A2E1D
:1037F000AA1BBB1BFD010DC0AA1FBB1FEE1FFF1F95
:10380000A217B307E407F50720F0A21BB30BE40BE4
:10381000F50B661F771F881F991F1A9469F760952B
:103820007095809590959B01AC01BD01CF010895E5
:10383000EE0FFF1F881F8BBF0790F691E02D1994A4
:10384000A29FB001B39FC001A39F700D811D1124E1
:10385000911DB29F700D811D1124911D0895AA1B09
:10386000BB1B51E107C0AA1FBB1FA617B70710F06B
:10387000A61BB70B881F991F5A95A9F7809590959D
:10388000BC01CD0108950F931F93CF93DF93823036
:10389000910510F482E090E0E0910112F0910212A3
:1038A00020E030E0A0E0B0E0309719F14081518194
:1038B0000281138148175907C8F08417950769F4E6
:1038C000109731F012960C93129713961C9327C001
:1038D000009301121093021222C02115310519F034
:1038E0004217530718F49A01BD01EF01DF01F801F7
:1038F000DBCF21153105F9F0281B390B24303105B8
:1039000080F48A819B816115710521F0FB0193830D
:10391000828304C09093021280930112FE013296BA
:1039200044C0FE01E20FF31F8193919322503109AD
:10393000398328833AC02091FF1130910012232B44
:1039400041F420910202309103023093001220933F
:10395000FF1120910002309101022115310541F43F
:103960002DB73EB74091040250910502241B350B40
:10397000E091FF11F0910012E217F307A0F42E1B63
:103980003F0B2817390778F0AC014E5F5F4F2417C3
:10399000350748F04E0F5F1F509300124093FF1100
:1039A0008193919302C0E0E0F0E0CF01DF91CF91ED
:1039B0001F910F910895CF93DF93009709F481C071
:1039C000FC01329713821282A0910112B09102126F
:1039D000109781F420813181820F931F2091FF1174
:1039E000309100122817390751F5F0930012E09337
:1039F000FF1167C0ED0120E030E0CE17DF0740F493
:103A00004A815B819E0141155105F1F0EA01F5CF34
:103A1000D383C28340815181840F951FC817D90772
:103A200059F488819981840F951F02969183808330
:103A30008A819B81938382832115310529F4F09338
:103A40000212E09301123DC0E901FB83EA83499130
:103A50005991C40FD51FEC17FD0761F48081918146
:103A6000840F951F0296E90199838883828193814F
:103A70009B838A83E0E0F0E012968D919C911397EE
:103A8000009719F0FD01DC01F7CF8D919C91119702
:103A90009D012E5F3F4F820F931F2091FF113091A8
:103AA00000122817390769F4309729F4109202128E
:103AB0001092011202C013821282B0930012A093DE
:103AC000FF11DF91CF9108958F929F92AF92BF9295
:103AD000CF92DF92EF92FF92CF93DF93EC01688158
:103AE00079818A819B81611571058105910521F498
:103AF00064E279ED8BE597E02DE133EF41E050E0B2
:103B00003CD349015A019B01AC01A7EAB1E451D36E
:103B10006B017C01ACEEB4EFA501940156D3DC013E
:103B2000CB018C0D9D1DAE1DBF1DB7FF03C00197BE
:103B3000A109B04888839983AA83BB839F77DF91CB
:103B4000CF91FF90EF90DF90CF90BF90AF909F907C
:103B50008F900895B9CF86E092E0B6CFA0E0B0E0B4
:103B60008093060290930702A0930802B093090283
:103B7000089581E090E0F8942CC3FB01DC0102C0C1
:103B800001900D9241505040D8F70895DC0101C0DA
:103B90006D9341505040E0F70895CF93DF93CDB738
:103BA000DEB7AE014A5F5F4FFA0161917191AF01DB
:103BB000809105129091061233D0DF91CF91089534
:103BC0000F931F93CF93DF93E0910512F0910612AC
:103BD000238121FF1BC08C01D0E0C0E0F80181915E
:103BE0008F016091051270910612DB011896ED911C
:103BF000FC911997882331F01995892B79F3DFEF20
:103C0000CFEFECCF8AE01995892B19F08FEF9FEF5A
:103C100002C08D2F9C2FDF91CF911F910F9108959E
:103C20002F923F924F925F926F927F928F929F92CC
:103C3000AF92BF92CF92DF92EF92FF920F931F93BA
:103C4000CF93DF93CDB7DEB72B970FB6F894DEBFD7
:103C50000FBECDBF6C017B018A01FC011782168269
:103C6000838181FFBFC1CE0101963C01F6019381A2
:103C7000F70193FD859193FF81917F01882309F4DA
:103C8000ADC1853239F493FD859193FF81917F0118
:103C9000853221F4B60190E0D6D1E8CF912C212CC9
:103CA000312CFFE1F315D8F08B3279F038F4803203
:103CB00079F08332A1F4232D20611DC08D3261F093
:103CC000803369F4232D216016C0832D8260382E45
:103CD000E32DE4603E2E2AC0F32DF8601DC037FCB2
:103CE0002DC020ED280F2A3040F08E32B9F436FC7A
:103CF00075C1232D2064322E19C036FE06C08AE01D
:103D0000989E200D1124922E11C0EAE02E9E200DC7
:103D10001124222EF32DF0623F2E08C08C3621F4A0
:103D2000832D8068382E02C0883641F4F70193FD58
:103D3000859193FF81917F018111B3CF982F9F7D52
:103D40009554933028F40C5F1F4F9FE399830DC067
:103D5000833631F0833771F0833509F055C020C0C8
:103D6000F801808189830E5F1F4F88248394912CF2
:103D7000530112C02801F2E04F0E511CF801A0803F
:103D8000B18036FE03C0692D70E002C06FEF7FEF97
:103D9000C5014ED14C018201F32DFF773F2E15C096
:103DA000280122E0420E511CF801A080B18036FEAD
:103DB00003C0692D70E002C06FEF7FEFC5012DD108
:103DC0004C01F32DF0683F2E820133FC19C0822D87
:103DD00090E088169906A0F4B60180E290E033D115
:103DE0002A94F5CFF50137FC859137FE81915F016B
:103DF000B60190E028D121102A9421E0821A91087E
:103E00008114910479F7E1C0843611F0893639F5CF
:103E1000F80137FE07C060817181828193810C5F58
:103E20001F4F08C060817181072E000C880B990B11
:103E30000E5F1F4FF32DFF763F2E97FF09C0909521
:103E40008095709561957F4F8F4F9F4FF0683F2E03
:103E50002AE030E0A30133D1882E861844C085378C
:103E600031F4232D2F7EB22E2AE030E025C0932D91
:103E7000997FB92E8F36C1F018F4883579F0AEC02D
:103E8000803719F0883721F0A9C0E92FE061BE2EF4
:103E9000B4FE0DC0FB2DF460BF2E09C034FE0AC075
:103EA000292F2660B22E06C028E030E005C020E1B0
:103EB00030E002C020E132E0F801B7FE07C06081C7
:103EC0007181828193810C5F1F4F06C06081718177
:103ED00080E090E00E5F1F4FA301F1D0882E86187E
:103EE000FB2DFF773F2E36FE0DC0232D2E7FA22EF9
:103EF000891458F434FE0BC032FC09C0832D8E7E29
:103F0000A82E05C0B82CA32C03C0B82C01C0B92C16
:103F1000A4FE0FC0FE01E80DF11D8081803321F465
:103F20009A2D997EA92E09C0A2FE06C0B394B3941F
:103F300004C08A2D867809F0B394A3FC10C0A0FEBB
:103F400006C0B21480F4280C922C9B180DC0B21439
:103F500058F4B60180E290E076D0B394F8CFB21472
:103F600018F42B1802C0982C212CA4FE0FC0B60107
:103F700080E390E068D0A2FE16C0A1FC03C088E7F1
:103F800090E002C088E590E0B6010CC08A2D8678EA
:103F900051F0A1FE02C08BE201C080E2A7FC8DE2DD
:103FA000B60190E050D0891430F4B60180E390E07F
:103FB0004AD09A94F8CF8A94F301E80DF11D8081DC
:103FC000B60190E040D08110F6CF222009F44ECE09
:103FD000B60180E290E037D02A94F7CFF6018681CF
:103FE000978102C08FEF9FEF2B960FB6F894DEBF3C
:103FF0000FBECDBFDF91CF911F910F91FF90EF903A
:10400000DF90CF90BF90AF909F908F907F906F90F8
:104010005F904F903F902F900895FC010590615064
:1040200070400110D8F7809590958E0F9F1F0895CE
:10403000FC016150704001900110D8F78095909577
:104040008E0F9F1F08950F931F93CF93DF93FB0154
:10405000238121FD03C08FEF9FEF2CC022FF16C0EC
:1040600046815781248135814217530744F4A0814A
:10407000B1819D012F5F3F4F318320838C93268137
:1040800037812F5F3F4F3783268314C08B01EC01AC
:10409000FB010084F185E02D1995892BE1F6D8010B
:1040A00016968D919C911797019617969C938E93D7
:1040B0001697CE01DF91CF911F910F910895FA01CC
:1040C000AA27283051F1203181F1E8946F936E7F57
:1040D0006E5F7F4F8F4F9F4FAF4FB1E03ED0B4E048
:1040E0003CD0670F781F891F9A1FA11D680F791F89
:1040F0008A1F911DA11D6A0F711D811D911DA11D9A
:1041000020D009F468943F912AE0269F11243019A9
:10411000305D3193DEF6CF010895462F4770405D44
:104120004193B3E00FD0C9F7F6CF462F4F70405DF3
:104130004A3318F0495D31FD4052419302D0A9F74E
:10414000EACFB4E0A6959795879577956795BA9548
:10415000C9F700976105710508959B01AC010A2E0E
:1041600006945795479537952795BA95C9F7620FE5
:10417000731F841F951FA01D0895052E97FB16F42D
:1041800000940FD057FD05D031DB07FC02D046F478
:1041900008C050954095309521953F4F4F4F5F4F48
:1041A000089590958095709561957F4F8F4F9F4FA3
:1041B000089546DBA59F900DB49F900DA49F800DA0
:1041C000911D11240895B7FFF4CFF3DF821B930BE9
:0641D0000895F894FFCFF2
:1041D6000000091220000100000009000000030091
:1041E6000000007D1568150000C600CE00D600361A
:1041F6000146726F6E7444697374616E63654D65D2
:104206006173004261636B44697374616E63654DEB
:10421600656173000A204F74686572732073706558
:104226006564203A202564006F7572207370656599
:1042360064203A20256400736166652053746F70AC
:1042460070696E672044697374616E6365203A20F5
:10425600256400206D6561737572656444697374C5
:10426600616E636520203A20256400446973746199
:104276006E6365206D6561737572656D656E74201C
:1042860046726F6E74207461736B005249534B21F2
:1042960021205249534B21210044697374616E6396
:1042A60065206D6561737572656D656E74206261FA
:1042B600636B207461736B004261636B204D6561B3
:1042C600737572656D656E74203A2025640A00491F
:1042D600444C4500546D72205376630053797374D1
:1042E600656D20496E697469616C697A6174696F7C
:1042F6006E20436F6D706C6574650048414C5F4C71
:04430600454400002A
:00000001FF
